{
  "contractName": "CIEG",
  "abi": [
    {
      "inputs": [],
      "payable": false,
      "stateMutability": "nonpayable",
      "type": "constructor"
    },
    {
      "constant": true,
      "inputs": [
        {
          "internalType": "address",
          "name": "",
          "type": "address"
        }
      ],
      "name": "candidates",
      "outputs": [
        {
          "internalType": "string",
          "name": "name",
          "type": "string"
        },
        {
          "internalType": "uint256",
          "name": "age",
          "type": "uint256"
        },
        {
          "internalType": "string",
          "name": "instName",
          "type": "string"
        },
        {
          "internalType": "string",
          "name": "aNumber",
          "type": "string"
        },
        {
          "internalType": "string",
          "name": "phNumber",
          "type": "string"
        },
        {
          "internalType": "string",
          "name": "email",
          "type": "string"
        },
        {
          "internalType": "string",
          "name": "qual",
          "type": "string"
        }
      ],
      "payable": false,
      "stateMutability": "view",
      "type": "function"
    },
    {
      "constant": true,
      "inputs": [
        {
          "internalType": "uint256",
          "name": "",
          "type": "uint256"
        }
      ],
      "name": "jobs",
      "outputs": [
        {
          "internalType": "string",
          "name": "companyName",
          "type": "string"
        },
        {
          "internalType": "string",
          "name": "jobTitle",
          "type": "string"
        },
        {
          "internalType": "string",
          "name": "category",
          "type": "string"
        },
        {
          "internalType": "string",
          "name": "location",
          "type": "string"
        },
        {
          "internalType": "string",
          "name": "ldate",
          "type": "string"
        },
        {
          "internalType": "string",
          "name": "jobType",
          "type": "string"
        },
        {
          "internalType": "uint256",
          "name": "reward",
          "type": "uint256"
        }
      ],
      "payable": false,
      "stateMutability": "view",
      "type": "function"
    },
    {
      "constant": false,
      "inputs": [
        {
          "internalType": "string",
          "name": "_name",
          "type": "string"
        },
        {
          "internalType": "uint256",
          "name": "_age",
          "type": "uint256"
        },
        {
          "internalType": "string",
          "name": "_instName",
          "type": "string"
        },
        {
          "internalType": "string",
          "name": "_aNumber",
          "type": "string"
        },
        {
          "internalType": "string",
          "name": "_phNumber",
          "type": "string"
        },
        {
          "internalType": "string",
          "name": "_email",
          "type": "string"
        },
        {
          "internalType": "string",
          "name": "_qual",
          "type": "string"
        }
      ],
      "name": "addCandidate",
      "outputs": [],
      "payable": false,
      "stateMutability": "nonpayable",
      "type": "function"
    },
    {
      "constant": false,
      "inputs": [
        {
          "internalType": "uint256",
          "name": "_id",
          "type": "uint256"
        },
        {
          "internalType": "string",
          "name": "_companyName",
          "type": "string"
        },
        {
          "internalType": "string",
          "name": "_jobTitle",
          "type": "string"
        },
        {
          "internalType": "string",
          "name": "_category",
          "type": "string"
        },
        {
          "internalType": "string",
          "name": "_location",
          "type": "string"
        },
        {
          "internalType": "string",
          "name": "_ldate",
          "type": "string"
        },
        {
          "internalType": "string",
          "name": "_jobType",
          "type": "string"
        },
        {
          "internalType": "uint256",
          "name": "_reward",
          "type": "uint256"
        }
      ],
      "name": "addJob",
      "outputs": [],
      "payable": false,
      "stateMutability": "nonpayable",
      "type": "function"
    }
  ],
  "bytecode": "0x608060405234801561001057600080fd5b50336000806101000a81548173ffffffffffffffffffffffffffffffffffffffff021916908373ffffffffffffffffffffffffffffffffffffffff160217905550611835806100606000396000f3fe608060405234801561001057600080fd5b506004361061004c5760003560e01c8063180aedf31461005157806370ea7b661461031b5780638ab66a90146106d3578063ae90ffa2146109b3575b600080fd5b61007d6004803603602081101561006757600080fd5b8101908080359060200190929190505050610d76565b6040518080602001806020018060200180602001806020018060200188815260200187810387528e818151815260200191508051906020019080838360005b838110156100d75780820151818401526020810190506100bc565b50505050905090810190601f1680156101045780820380516001836020036101000a031916815260200191505b5087810386528d818151815260200191508051906020019080838360005b8381101561013d578082015181840152602081019050610122565b50505050905090810190601f16801561016a5780820380516001836020036101000a031916815260200191505b5087810385528c818151815260200191508051906020019080838360005b838110156101a3578082015181840152602081019050610188565b50505050905090810190601f1680156101d05780820380516001836020036101000a031916815260200191505b5087810384528b818151815260200191508051906020019080838360005b838110156102095780820151818401526020810190506101ee565b50505050905090810190601f1680156102365780820380516001836020036101000a031916815260200191505b5087810383528a818151815260200191508051906020019080838360005b8381101561026f578082015181840152602081019050610254565b50505050905090810190601f16801561029c5780820380516001836020036101000a031916815260200191505b50878103825289818151815260200191508051906020019080838360005b838110156102d55780820151818401526020810190506102ba565b50505050905090810190601f1680156103025780820380516001836020036101000a031916815260200191505b509d505050505050505050505050505060405180910390f35b6106d1600480360360e081101561033157600080fd5b810190808035906020019064010000000081111561034e57600080fd5b82018360208201111561036057600080fd5b8035906020019184600183028401116401000000008311171561038257600080fd5b91908080601f016020809104026020016040519081016040528093929190818152602001838380828437600081840152601f19601f82011690508083019250505050505050919291929080359060200190929190803590602001906401000000008111156103ef57600080fd5b82018360208201111561040157600080fd5b8035906020019184600183028401116401000000008311171561042357600080fd5b91908080601f016020809104026020016040519081016040528093929190818152602001838380828437600081840152601f19601f8201169050808301925050505050505091929192908035906020019064010000000081111561048657600080fd5b82018360208201111561049857600080fd5b803590602001918460018302840111640100000000831117156104ba57600080fd5b91908080601f016020809104026020016040519081016040528093929190818152602001838380828437600081840152601f19601f8201169050808301925050505050505091929192908035906020019064010000000081111561051d57600080fd5b82018360208201111561052f57600080fd5b8035906020019184600183028401116401000000008311171561055157600080fd5b91908080601f016020809104026020016040519081016040528093929190818152602001838380828437600081840152601f19601f820116905080830192505050505050509192919290803590602001906401000000008111156105b457600080fd5b8201836020820111156105c657600080fd5b803590602001918460018302840111640100000000831117156105e857600080fd5b91908080601f016020809104026020016040519081016040528093929190818152602001838380828437600081840152601f19601f8201169050808301925050505050505091929192908035906020019064010000000081111561064b57600080fd5b82018360208201111561065d57600080fd5b8035906020019184600183028401116401000000008311171561067f57600080fd5b91908080601f016020809104026020016040519081016040528093929190818152602001838380828437600081840152601f19601f820116905080830192505050505050509192919290505050611148565b005b610715600480360360208110156106e957600080fd5b81019080803573ffffffffffffffffffffffffffffffffffffffff16906020019092919050505061127e565b6040518080602001888152602001806020018060200180602001806020018060200187810387528e818151815260200191508051906020019080838360005b8381101561076f578082015181840152602081019050610754565b50505050905090810190601f16801561079c5780820380516001836020036101000a031916815260200191505b5087810386528c818151815260200191508051906020019080838360005b838110156107d55780820151818401526020810190506107ba565b50505050905090810190601f1680156108025780820380516001836020036101000a031916815260200191505b5087810385528b818151815260200191508051906020019080838360005b8381101561083b578082015181840152602081019050610820565b50505050905090810190601f1680156108685780820380516001836020036101000a031916815260200191505b5087810384528a818151815260200191508051906020019080838360005b838110156108a1578082015181840152602081019050610886565b50505050905090810190601f1680156108ce5780820380516001836020036101000a031916815260200191505b50878103835289818151815260200191508051906020019080838360005b838110156109075780820151818401526020810190506108ec565b50505050905090810190601f1680156109345780820380516001836020036101000a031916815260200191505b50878103825288818151815260200191508051906020019080838360005b8381101561096d578082015181840152602081019050610952565b50505050905090810190601f16801561099a5780820380516001836020036101000a031916815260200191505b509d505050505050505050505050505060405180910390f35b610d7460048036036101008110156109ca57600080fd5b8101908080359060200190929190803590602001906401000000008111156109f157600080fd5b820183602082011115610a0357600080fd5b80359060200191846001830284011164010000000083111715610a2557600080fd5b91908080601f016020809104026020016040519081016040528093929190818152602001838380828437600081840152601f19601f82011690508083019250505050505050919291929080359060200190640100000000811115610a8857600080fd5b820183602082011115610a9a57600080fd5b80359060200191846001830284011164010000000083111715610abc57600080fd5b91908080601f016020809104026020016040519081016040528093929190818152602001838380828437600081840152601f19601f82011690508083019250505050505050919291929080359060200190640100000000811115610b1f57600080fd5b820183602082011115610b3157600080fd5b80359060200191846001830284011164010000000083111715610b5357600080fd5b91908080601f016020809104026020016040519081016040528093929190818152602001838380828437600081840152601f19601f82011690508083019250505050505050919291929080359060200190640100000000811115610bb657600080fd5b820183602082011115610bc857600080fd5b80359060200191846001830284011164010000000083111715610bea57600080fd5b91908080601f016020809104026020016040519081016040528093929190818152602001838380828437600081840152601f19601f82011690508083019250505050505050919291929080359060200190640100000000811115610c4d57600080fd5b820183602082011115610c5f57600080fd5b80359060200191846001830284011164010000000083111715610c8157600080fd5b91908080601f016020809104026020016040519081016040528093929190818152602001838380828437600081840152601f19601f82011690508083019250505050505050919291929080359060200190640100000000811115610ce457600080fd5b820183602082011115610cf657600080fd5b80359060200191846001830284011164010000000083111715610d1857600080fd5b91908080601f016020809104026020016040519081016040528093929190818152602001838380828437600081840152601f19601f82011690508083019250505050505050919291929080359060200190929190505050611650565b005b6003602052806000526040600020600091509050806000018054600181600116156101000203166002900480601f016020809104026020016040519081016040528092919081815260200182805460018160011615610100020316600290048015610e225780601f10610df757610100808354040283529160200191610e22565b820191906000526020600020905b815481529060010190602001808311610e0557829003601f168201915b505050505090806001018054600181600116156101000203166002900480601f016020809104026020016040519081016040528092919081815260200182805460018160011615610100020316600290048015610ec05780601f10610e9557610100808354040283529160200191610ec0565b820191906000526020600020905b815481529060010190602001808311610ea357829003601f168201915b505050505090806002018054600181600116156101000203166002900480601f016020809104026020016040519081016040528092919081815260200182805460018160011615610100020316600290048015610f5e5780601f10610f3357610100808354040283529160200191610f5e565b820191906000526020600020905b815481529060010190602001808311610f4157829003601f168201915b505050505090806003018054600181600116156101000203166002900480601f016020809104026020016040519081016040528092919081815260200182805460018160011615610100020316600290048015610ffc5780601f10610fd157610100808354040283529160200191610ffc565b820191906000526020600020905b815481529060010190602001808311610fdf57829003601f168201915b505050505090806004018054600181600116156101000203166002900480601f01602080910402602001604051908101604052809291908181526020018280546001816001161561010002031660029004801561109a5780601f1061106f5761010080835404028352916020019161109a565b820191906000526020600020905b81548152906001019060200180831161107d57829003601f168201915b505050505090806005018054600181600116156101000203166002900480601f0160208091040260200160405190810160405280929190818152602001828054600181600116156101000203166002900480156111385780601f1061110d57610100808354040283529160200191611138565b820191906000526020600020905b81548152906001019060200180831161111b57829003601f168201915b5050505050908060060154905087565b6040518060e0016040528088815260200187815260200186815260200185815260200184815260200183815260200182815250600260003373ffffffffffffffffffffffffffffffffffffffff1673ffffffffffffffffffffffffffffffffffffffff16815260200190815260200160002060008201518160000190805190602001906111d692919061175b565b506020820151816001015560408201518160020190805190602001906111fd92919061175b565b50606082015181600301908051906020019061121a92919061175b565b50608082015181600401908051906020019061123792919061175b565b5060a082015181600501908051906020019061125492919061175b565b5060c082015181600601908051906020019061127192919061175b565b5090505050505050505050565b6002602052806000526040600020600091509050806000018054600181600116156101000203166002900480601f01602080910402602001604051908101604052809291908181526020018280546001816001161561010002031660029004801561132a5780601f106112ff5761010080835404028352916020019161132a565b820191906000526020600020905b81548152906001019060200180831161130d57829003601f168201915b505050505090806001015490806002018054600181600116156101000203166002900480601f0160208091040260200160405190810160405280929190818152602001828054600181600116156101000203166002900480156113ce5780601f106113a3576101008083540402835291602001916113ce565b820191906000526020600020905b8154815290600101906020018083116113b157829003601f168201915b505050505090806003018054600181600116156101000203166002900480601f01602080910402602001604051908101604052809291908181526020018280546001816001161561010002031660029004801561146c5780601f106114415761010080835404028352916020019161146c565b820191906000526020600020905b81548152906001019060200180831161144f57829003601f168201915b505050505090806004018054600181600116156101000203166002900480601f01602080910402602001604051908101604052809291908181526020018280546001816001161561010002031660029004801561150a5780601f106114df5761010080835404028352916020019161150a565b820191906000526020600020905b8154815290600101906020018083116114ed57829003601f168201915b505050505090806005018054600181600116156101000203166002900480601f0160208091040260200160405190810160405280929190818152602001828054600181600116156101000203166002900480156115a85780601f1061157d576101008083540402835291602001916115a8565b820191906000526020600020905b81548152906001019060200180831161158b57829003601f168201915b505050505090806006018054600181600116156101000203166002900480601f0160208091040260200160405190810160405280929190818152602001828054600181600116156101000203166002900480156116465780601f1061161b57610100808354040283529160200191611646565b820191906000526020600020905b81548152906001019060200180831161162957829003601f168201915b5050505050905087565b6040518060e0016040528088815260200187815260200186815260200185815260200184815260200183815260200182815250600360008a815260200190815260200160002060008201518160000190805190602001906116b292919061175b565b5060208201518160010190805190602001906116cf92919061175b565b5060408201518160020190805190602001906116ec92919061175b565b50606082015181600301908051906020019061170992919061175b565b50608082015181600401908051906020019061172692919061175b565b5060a082015181600501908051906020019061174392919061175b565b5060c082015181600601559050505050505050505050565b828054600181600116156101000203166002900490600052602060002090601f016020900481019282601f1061179c57805160ff19168380011785556117ca565b828001600101855582156117ca579182015b828111156117c95782518255916020019190600101906117ae565b5b5090506117d791906117db565b5090565b6117fd91905b808211156117f95760008160009055506001016117e1565b5090565b9056fea265627a7a7231582097dc42660a148a348e9775a9f08ffce1904f070ac3d70471bf81e0fdf4f717f864736f6c63430005100032",
  "source": "pragma solidity >= 0.5.0 < 0.7.0;\n\ncontract CIEG {\n    \n  address owner;\n  \n  constructor() public {\n    owner = msg.sender;\n  }\n\n  uint256 perfMatrix;\n  struct Candidate {\n    string name;\n    uint256 age;\n    string instName;\n    string aNumber;\n    string phNumber;\n    string email;\n    string qual;\n  }\n\n  struct Job {\n    string companyName;\n    string jobTitle;\n    string category;\n    string location;\n    string ldate;\n    string jobType;\n    uint256 reward;\n  }\n\n  mapping(address => Candidate) public candidates;\n  mapping(uint => Job) public jobs;\n  \n  function addCandidate(string memory _name, uint256 _age, string memory _instName, string memory _aNumber, string memory _phNumber, string memory _email, string memory _qual) public {\n      candidates[msg.sender] = Candidate(_name, _age, _instName, _aNumber, _phNumber, _email, _qual);\n  }\n  \n  function addJob(uint _id, string memory _companyName, string memory _jobTitle, string memory _category, string memory _location, string memory _ldate, string memory _jobType, uint256 _reward) public {\n      jobs[_id] = Job(_companyName, _jobTitle, _category, _location, _ldate, _jobType, _reward);\n  }\n\n}\n",
  "sourcePath": "D:\\CIEG\\ced-b4-g08\\frontend\\truffle\\contracts\\CIEG.sol",
  "compiler": {
    "name": "solc",
    "version": "0.5.16+commit.9c3226ce.Emscripten.clang"
  },
  "schemaVersion": "3.0.23",
  "updatedAt": "2020-07-30T10:08:31.329Z",
  "networkType": "ethereum",
  "devdoc": {
    "methods": {}
  },
  "userdoc": {
    "methods": {}
  }
}