{
  "contractName": "CIEG",
  "abi": [
    {
      "inputs": [],
      "payable": false,
      "stateMutability": "nonpayable",
      "type": "constructor"
    },
    {
      "anonymous": false,
      "inputs": [
        {
          "indexed": false,
          "internalType": "uint256",
          "name": "_jobId",
          "type": "uint256"
        }
      ],
      "name": "JobCreated",
      "type": "event"
    },
    {
      "constant": false,
      "inputs": [
        {
          "internalType": "string",
          "name": "_name",
          "type": "string"
        },
        {
          "internalType": "uint256",
          "name": "_age",
          "type": "uint256"
        },
        {
          "internalType": "string",
          "name": "_phNumber",
          "type": "string"
        },
        {
          "internalType": "string",
          "name": "_email",
          "type": "string"
        },
        {
          "internalType": "string",
          "name": "_instName",
          "type": "string"
        },
        {
          "internalType": "string",
          "name": "_qual",
          "type": "string"
        }
      ],
      "name": "addCandidate",
      "outputs": [],
      "payable": false,
      "stateMutability": "nonpayable",
      "type": "function"
    },
    {
      "constant": false,
      "inputs": [
        {
          "internalType": "string",
          "name": "_companyName",
          "type": "string"
        },
        {
          "internalType": "string",
          "name": "_jobTitle",
          "type": "string"
        },
        {
          "internalType": "string",
          "name": "_location",
          "type": "string"
        },
        {
          "internalType": "string",
          "name": "_jobType",
          "type": "string"
        },
        {
          "internalType": "uint256",
          "name": "_reward",
          "type": "uint256"
        }
      ],
      "name": "addJob",
      "outputs": [],
      "payable": false,
      "stateMutability": "nonpayable",
      "type": "function"
    },
    {
      "constant": true,
      "inputs": [
        {
          "internalType": "uint256",
          "name": "_jobId",
          "type": "uint256"
        }
      ],
      "name": "getJob",
      "outputs": [
        {
          "internalType": "uint256",
          "name": "",
          "type": "uint256"
        },
        {
          "internalType": "string",
          "name": "",
          "type": "string"
        },
        {
          "internalType": "string",
          "name": "",
          "type": "string"
        },
        {
          "internalType": "string",
          "name": "",
          "type": "string"
        },
        {
          "internalType": "string",
          "name": "",
          "type": "string"
        },
        {
          "internalType": "uint256",
          "name": "",
          "type": "uint256"
        }
      ],
      "payable": false,
      "stateMutability": "view",
      "type": "function"
    },
    {
      "constant": true,
      "inputs": [],
      "name": "getAllJobs",
      "outputs": [
        {
          "internalType": "uint256",
          "name": "",
          "type": "uint256"
        }
      ],
      "payable": false,
      "stateMutability": "view",
      "type": "function"
    }
  ],
  "bytecode": "0x608060405234801561001057600080fd5b50336000806101000a81548173ffffffffffffffffffffffffffffffffffffffff021916908373ffffffffffffffffffffffffffffffffffffffff160217905550610f48806100606000396000f3fe608060405234801561001057600080fd5b506004361061004c5760003560e01c8063965a79fb14610051578063b38272cc1461006f578063bf22c45714610390578063ca7a650414610589575b600080fd5b610059610813565b6040518082815260200191505060405180910390f35b61038e600480360360c081101561008557600080fd5b81019080803590602001906401000000008111156100a257600080fd5b8201836020820111156100b457600080fd5b803590602001918460018302840111640100000000831117156100d657600080fd5b91908080601f016020809104026020016040519081016040528093929190818152602001838380828437600081840152601f19601f820116905080830192505050505050509192919290803590602001909291908035906020019064010000000081111561014357600080fd5b82018360208201111561015557600080fd5b8035906020019184600183028401116401000000008311171561017757600080fd5b91908080601f016020809104026020016040519081016040528093929190818152602001838380828437600081840152601f19601f820116905080830192505050505050509192919290803590602001906401000000008111156101da57600080fd5b8201836020820111156101ec57600080fd5b8035906020019184600183028401116401000000008311171561020e57600080fd5b91908080601f016020809104026020016040519081016040528093929190818152602001838380828437600081840152601f19601f8201169050808301925050505050505091929192908035906020019064010000000081111561027157600080fd5b82018360208201111561028357600080fd5b803590602001918460018302840111640100000000831117156102a557600080fd5b91908080601f016020809104026020016040519081016040528093929190818152602001838380828437600081840152601f19601f8201169050808301925050505050505091929192908035906020019064010000000081111561030857600080fd5b82018360208201111561031a57600080fd5b8035906020019184600183028401116401000000008311171561033c57600080fd5b91908080601f016020809104026020016040519081016040528093929190818152602001838380828437600081840152601f19601f820116905080830192505050505050509192919290505050610820565b005b6103bc600480360360208110156103a657600080fd5b8101908080359060200190929190505050610932565b604051808781526020018060200180602001806020018060200186815260200185810385528a818151815260200191508051906020019080838360005b838110156104145780820151818401526020810190506103f9565b50505050905090810190601f1680156104415780820380516001836020036101000a031916815260200191505b50858103845289818151815260200191508051906020019080838360005b8381101561047a57808201518184015260208101905061045f565b50505050905090810190601f1680156104a75780820380516001836020036101000a031916815260200191505b50858103835288818151815260200191508051906020019080838360005b838110156104e05780820151818401526020810190506104c5565b50505050905090810190601f16801561050d5780820380516001836020036101000a031916815260200191505b50858103825287818151815260200191508051906020019080838360005b8381101561054657808201518184015260208101905061052b565b50505050905090810190601f1680156105735780820380516001836020036101000a031916815260200191505b509a505050505050505050505060405180910390f35b610811600480360360a081101561059f57600080fd5b81019080803590602001906401000000008111156105bc57600080fd5b8201836020820111156105ce57600080fd5b803590602001918460018302840111640100000000831117156105f057600080fd5b91908080601f016020809104026020016040519081016040528093929190818152602001838380828437600081840152601f19601f8201169050808301925050505050505091929192908035906020019064010000000081111561065357600080fd5b82018360208201111561066557600080fd5b8035906020019184600183028401116401000000008311171561068757600080fd5b91908080601f016020809104026020016040519081016040528093929190818152602001838380828437600081840152601f19601f820116905080830192505050505050509192919290803590602001906401000000008111156106ea57600080fd5b8201836020820111156106fc57600080fd5b8035906020019184600183028401116401000000008311171561071e57600080fd5b91908080601f016020809104026020016040519081016040528093929190818152602001838380828437600081840152601f19601f8201169050808301925050505050505091929192908035906020019064010000000081111561078157600080fd5b82018360208201111561079357600080fd5b803590602001918460018302840111640100000000831117156107b557600080fd5b91908080601f016020809104026020016040519081016040528093929190818152602001838380828437600081840152601f19601f82011690508083019250505050505050919291929080359060200190929190505050610cfe565b005b6000600380549050905090565b6040518060c0016040528087815260200186815260200185815260200184815260200183815260200182815250600260003373ffffffffffffffffffffffffffffffffffffffff1673ffffffffffffffffffffffffffffffffffffffff16815260200190815260200160002060008201518160000190805190602001906108a8929190610e38565b506020820151816001015560408201518160020190805190602001906108cf929190610e38565b5060608201518160030190805190602001906108ec929190610e38565b506080820151816004019080519060200190610909929190610e38565b5060a0820151816005019080519060200190610926929190610e38565b50905050505050505050565b6000606080606080600060038054905087108015610951575060008710155b6109c3576040517f08c379a000000000000000000000000000000000000000000000000000000000815260040180806020018281038252600d8152602001807f4e6f206a6f6220666f756e64210000000000000000000000000000000000000081525060200191505060405180910390fd5b600387815481106109d057fe5b906000526020600020906006020160000154600388815481106109ef57fe5b906000526020600020906006020160010160038981548110610a0d57fe5b906000526020600020906006020160020160038a81548110610a2b57fe5b906000526020600020906006020160030160038b81548110610a4957fe5b906000526020600020906006020160040160038c81548110610a6757fe5b906000526020600020906006020160050154848054600181600116156101000203166002900480601f016020809104026020016040519081016040528092919081815260200182805460018160011615610100020316600290048015610b0e5780601f10610ae357610100808354040283529160200191610b0e565b820191906000526020600020905b815481529060010190602001808311610af157829003601f168201915b50505050509450838054600181600116156101000203166002900480601f016020809104026020016040519081016040528092919081815260200182805460018160011615610100020316600290048015610baa5780601f10610b7f57610100808354040283529160200191610baa565b820191906000526020600020905b815481529060010190602001808311610b8d57829003601f168201915b50505050509350828054600181600116156101000203166002900480601f016020809104026020016040519081016040528092919081815260200182805460018160011615610100020316600290048015610c465780601f10610c1b57610100808354040283529160200191610c46565b820191906000526020600020905b815481529060010190602001808311610c2957829003601f168201915b50505050509250818054600181600116156101000203166002900480601f016020809104026020016040519081016040528092919081815260200182805460018160011615610100020316600290048015610ce25780601f10610cb757610100808354040283529160200191610ce2565b820191906000526020600020905b815481529060010190602001808311610cc557829003601f168201915b5050505050915095509550955095509550955091939550919395565b60006003805490509050610d10610eb8565b6040518060c0016040528083815260200188815260200187815260200186815260200185815260200184815250905060038190806001815401808255809150509060018203906000526020600020906006020160009091929091909150600082015181600001556020820151816001019080519060200190610d93929190610e38565b506040820151816002019080519060200190610db0929190610e38565b506060820151816003019080519060200190610dcd929190610e38565b506080820151816004019080519060200190610dea929190610e38565b5060a082015181600501555050507f92447c6ecd808d390fb352da0dc90a05275b074c43bf302132a27fabafa6872b826040518082815260200191505060405180910390a150505050505050565b828054600181600116156101000203166002900490600052602060002090601f016020900481019282601f10610e7957805160ff1916838001178555610ea7565b82800160010185558215610ea7579182015b82811115610ea6578251825591602001919060010190610e8b565b5b509050610eb49190610eee565b5090565b6040518060c001604052806000815260200160608152602001606081526020016060815260200160608152602001600081525090565b610f1091905b80821115610f0c576000816000905550600101610ef4565b5090565b9056fea265627a7a72315820c2a3664b937e8d9aac9b1451ff995d73cd5d9884c8f019d8cdb97c4936da8d1864736f6c63430005100032",
  "source": "// SPDX-License-Identifier: MIT\npragma solidity >= 0.5.0 < 0.7.0;\n\ncontract CIEG {\n    \n  address owner;\n  \n  constructor() public {\n    owner = msg.sender;\n  }\n\n  uint256 perfMatrix;\n  struct Candidate {\n    string name;\n    uint256 age;\n    string phNumber;\n    string email;\n    string instName;\n    string qual;\n  }\n\n  struct Job {\n    uint256 id;\n    string companyName;\n    string jobTitle;\n    string location;\n    string jobType;\n    uint256 reward;\n  }\n\n  mapping(address => Candidate) private candidates;\n  Job[] private jobs;\n\n  event JobCreated(uint256 _jobId);\n  \n  function addCandidate(string memory _name, uint256 _age, string memory _phNumber, string memory _email, string memory _instName, string memory _qual) public {\n      candidates[msg.sender] = Candidate(_name, _age, _phNumber, _email, _instName, _qual);\n  }\n  \n  function addJob(string memory _companyName, string memory _jobTitle, string memory _location, string memory _jobType, uint256 _reward) public {\n      uint256 jobId = jobs.length;\n\n      Job memory newJob = Job({\n        id: jobId,\n        companyName: _companyName,\n        jobTitle: _jobTitle,\n        location: _location,\n        jobType: _jobType,\n        reward: _reward\n      });\n\n      jobs.push(newJob);\n      emit JobCreated(jobId);\n  }\n\n  function getJob(uint256 _jobId) external view returns(uint256, string memory, string memory, string memory, string memory, uint256) {\n    require(_jobId < jobs.length && _jobId >=0, \"No job found!\");\n    return(\n      jobs[_jobId].id,\n      jobs[_jobId].companyName,\n      jobs[_jobId].jobTitle,\n      jobs[_jobId].location,\n      jobs[_jobId].jobType,\n      jobs[_jobId].reward\n    );\n  }\n\n  function getAllJobs() external view returns(uint256) {\n    return jobs.length;\n  }\n\n}\n",
  "sourcePath": "D:\\CIEG\\ced-b4-g08\\frontend\\truffle\\contracts\\CIEG.sol",
  "compiler": {
    "name": "solc",
    "version": "0.5.16+commit.9c3226ce.Emscripten.clang"
  },
  "schemaVersion": "3.0.23",
  "updatedAt": "2020-08-01T13:13:50.274Z",
  "networkType": "ethereum",
  "devdoc": {
    "methods": {}
  },
  "userdoc": {
    "methods": {}
  }
}