{
  "contractName": "CIEG",
  "abi": [
    {
      "inputs": [],
      "payable": false,
      "stateMutability": "nonpayable",
      "type": "constructor"
    },
    {
      "anonymous": false,
      "inputs": [
        {
          "indexed": false,
          "internalType": "uint256",
          "name": "_jobId",
          "type": "uint256"
        }
      ],
      "name": "JobCreated",
      "type": "event"
    },
    {
      "constant": false,
      "inputs": [
        {
          "internalType": "address",
          "name": "_empAddress",
          "type": "address"
        },
        {
          "internalType": "string",
          "name": "_empName",
          "type": "string"
        }
      ],
      "name": "addVerifiedEmployer",
      "outputs": [],
      "payable": false,
      "stateMutability": "nonpayable",
      "type": "function"
    },
    {
      "constant": false,
      "inputs": [
        {
          "internalType": "address",
          "name": "_vEmpAddress",
          "type": "address"
        },
        {
          "internalType": "address",
          "name": "_candAddress",
          "type": "address"
        },
        {
          "internalType": "uint256",
          "name": "_enrolledJobId",
          "type": "uint256"
        },
        {
          "internalType": "uint256",
          "name": "_evalScore",
          "type": "uint256"
        }
      ],
      "name": "addPerfMatrix",
      "outputs": [],
      "payable": false,
      "stateMutability": "nonpayable",
      "type": "function"
    },
    {
      "constant": false,
      "inputs": [
        {
          "internalType": "uint256",
          "name": "_applJobId",
          "type": "uint256"
        },
        {
          "internalType": "string",
          "name": "_name",
          "type": "string"
        },
        {
          "internalType": "uint256",
          "name": "_age",
          "type": "uint256"
        },
        {
          "internalType": "string",
          "name": "_phNumber",
          "type": "string"
        },
        {
          "internalType": "string",
          "name": "_qual",
          "type": "string"
        }
      ],
      "name": "addCandidate",
      "outputs": [],
      "payable": false,
      "stateMutability": "nonpayable",
      "type": "function"
    },
    {
      "constant": false,
      "inputs": [
        {
          "internalType": "uint256",
          "name": "_evid",
          "type": "uint256"
        },
        {
          "internalType": "string",
          "name": "_companyName",
          "type": "string"
        },
        {
          "internalType": "string",
          "name": "_jobTitle",
          "type": "string"
        },
        {
          "internalType": "string",
          "name": "_location",
          "type": "string"
        },
        {
          "internalType": "string",
          "name": "_jobType",
          "type": "string"
        },
        {
          "internalType": "uint256",
          "name": "_reward",
          "type": "uint256"
        }
      ],
      "name": "addJob",
      "outputs": [],
      "payable": false,
      "stateMutability": "nonpayable",
      "type": "function"
    },
    {
      "constant": false,
      "inputs": [
        {
          "internalType": "uint256",
          "name": "_jobId",
          "type": "uint256"
        }
      ],
      "name": "changeJobStatus",
      "outputs": [],
      "payable": false,
      "stateMutability": "nonpayable",
      "type": "function"
    },
    {
      "constant": true,
      "inputs": [
        {
          "internalType": "uint256",
          "name": "_jobId",
          "type": "uint256"
        }
      ],
      "name": "getJob",
      "outputs": [
        {
          "internalType": "address",
          "name": "",
          "type": "address"
        },
        {
          "internalType": "uint256",
          "name": "",
          "type": "uint256"
        },
        {
          "internalType": "string",
          "name": "",
          "type": "string"
        },
        {
          "internalType": "string",
          "name": "",
          "type": "string"
        },
        {
          "internalType": "string",
          "name": "",
          "type": "string"
        },
        {
          "internalType": "string",
          "name": "",
          "type": "string"
        },
        {
          "internalType": "uint256",
          "name": "",
          "type": "uint256"
        }
      ],
      "payable": false,
      "stateMutability": "view",
      "type": "function"
    },
    {
      "constant": true,
      "inputs": [
        {
          "internalType": "uint256",
          "name": "_jobId",
          "type": "uint256"
        }
      ],
      "name": "getJobDetails",
      "outputs": [
        {
          "internalType": "address",
          "name": "",
          "type": "address"
        },
        {
          "internalType": "uint256",
          "name": "",
          "type": "uint256"
        }
      ],
      "payable": false,
      "stateMutability": "view",
      "type": "function"
    },
    {
      "constant": true,
      "inputs": [],
      "name": "getAllJobs",
      "outputs": [
        {
          "internalType": "uint256",
          "name": "",
          "type": "uint256"
        }
      ],
      "payable": false,
      "stateMutability": "view",
      "type": "function"
    },
    {
      "constant": true,
      "inputs": [
        {
          "internalType": "uint256",
          "name": "_candidate",
          "type": "uint256"
        }
      ],
      "name": "getCandidate",
      "outputs": [
        {
          "internalType": "uint256",
          "name": "",
          "type": "uint256"
        },
        {
          "internalType": "address",
          "name": "",
          "type": "address"
        },
        {
          "internalType": "string",
          "name": "",
          "type": "string"
        },
        {
          "internalType": "uint256",
          "name": "",
          "type": "uint256"
        },
        {
          "internalType": "string",
          "name": "",
          "type": "string"
        },
        {
          "internalType": "string",
          "name": "",
          "type": "string"
        }
      ],
      "payable": false,
      "stateMutability": "view",
      "type": "function"
    },
    {
      "constant": true,
      "inputs": [],
      "name": "getAllVEmployers",
      "outputs": [
        {
          "internalType": "uint256",
          "name": "",
          "type": "uint256"
        }
      ],
      "payable": false,
      "stateMutability": "view",
      "type": "function"
    },
    {
      "constant": true,
      "inputs": [
        {
          "internalType": "uint256",
          "name": "_empVId",
          "type": "uint256"
        }
      ],
      "name": "getVerifiedEmployer",
      "outputs": [
        {
          "internalType": "uint256",
          "name": "",
          "type": "uint256"
        },
        {
          "internalType": "address",
          "name": "",
          "type": "address"
        },
        {
          "internalType": "string",
          "name": "",
          "type": "string"
        }
      ],
      "payable": false,
      "stateMutability": "view",
      "type": "function"
    },
    {
      "constant": true,
      "inputs": [
        {
          "internalType": "uint256",
          "name": "_jobId",
          "type": "uint256"
        }
      ],
      "name": "getPerfMatrix",
      "outputs": [
        {
          "internalType": "address",
          "name": "",
          "type": "address"
        },
        {
          "internalType": "address",
          "name": "",
          "type": "address"
        },
        {
          "internalType": "uint256",
          "name": "",
          "type": "uint256"
        },
        {
          "internalType": "uint256",
          "name": "",
          "type": "uint256"
        }
      ],
      "payable": false,
      "stateMutability": "view",
      "type": "function"
    }
  ],
  "bytecode": "0x608060405234801561001057600080fd5b50336000806101000a81548173ffffffffffffffffffffffffffffffffffffffff021916908373ffffffffffffffffffffffffffffffffffffffff16021790555061222b806100606000396000f3fe608060405234801561001057600080fd5b50600436106100b45760003560e01c8063965a79fb11610071578063965a79fb1461078a578063a7979a54146107a8578063ab5d8d92146107d6578063bf22c457146108b1578063c3fe887d14610add578063e6ccbdcd14610cda576100b4565b80632819cfdb146100b9578063302657811461016857806335b8e820146101e05780634c11f0bd146103a05780634cac35c6146104815780636e02d967146104f6575b600080fd5b6100e5600480360360208110156100cf57600080fd5b8101908080359060200190929190505050610cf8565b604051808573ffffffffffffffffffffffffffffffffffffffff1673ffffffffffffffffffffffffffffffffffffffff1681526020018473ffffffffffffffffffffffffffffffffffffffff1673ffffffffffffffffffffffffffffffffffffffff16815260200183815260200182815260200194505050505060405180910390f35b6101de6004803603608081101561017e57600080fd5b81019080803573ffffffffffffffffffffffffffffffffffffffff169060200190929190803573ffffffffffffffffffffffffffffffffffffffff1690602001909291908035906020019092919080359060200190929190505050610da9565b005b61020c600480360360208110156101f657600080fd5b8101908080359060200190929190505050610f3e565b604051808781526020018673ffffffffffffffffffffffffffffffffffffffff1673ffffffffffffffffffffffffffffffffffffffff168152602001806020018581526020018060200180602001848103845288818151815260200191508051906020019080838360005b83811015610292578082015181840152602081019050610277565b50505050905090810190601f1680156102bf5780820380516001836020036101000a031916815260200191505b50848103835286818151815260200191508051906020019080838360005b838110156102f85780820151818401526020810190506102dd565b50505050905090810190601f1680156103255780820380516001836020036101000a031916815260200191505b50848103825285818151815260200191508051906020019080838360005b8381101561035e578082015181840152602081019050610343565b50505050905090810190601f16801561038b5780820380516001836020036101000a031916815260200191505b50995050505050505050505060405180910390f35b6103cc600480360360208110156103b657600080fd5b81019080803590602001909291905050506111d8565b604051808481526020018373ffffffffffffffffffffffffffffffffffffffff1673ffffffffffffffffffffffffffffffffffffffff16815260200180602001828103825283818151815260200191508051906020019080838360005b83811015610444578082015181840152602081019050610429565b50505050905090810190601f1680156104715780820380516001836020036101000a031916815260200191505b5094505050505060405180910390f35b6104ad6004803603602081101561049757600080fd5b8101908080359060200190929190505050611389565b604051808373ffffffffffffffffffffffffffffffffffffffff1673ffffffffffffffffffffffffffffffffffffffff1681526020018281526020019250505060405180910390f35b610788600480360360c081101561050c57600080fd5b81019080803590602001909291908035906020019064010000000081111561053357600080fd5b82018360208201111561054557600080fd5b8035906020019184600183028401116401000000008311171561056757600080fd5b91908080601f016020809104026020016040519081016040528093929190818152602001838380828437600081840152601f19601f820116905080830192505050505050509192919290803590602001906401000000008111156105ca57600080fd5b8201836020820111156105dc57600080fd5b803590602001918460018302840111640100000000831117156105fe57600080fd5b91908080601f016020809104026020016040519081016040528093929190818152602001838380828437600081840152601f19601f8201169050808301925050505050505091929192908035906020019064010000000081111561066157600080fd5b82018360208201111561067357600080fd5b8035906020019184600183028401116401000000008311171561069557600080fd5b91908080601f016020809104026020016040519081016040528093929190818152602001838380828437600081840152601f19601f820116905080830192505050505050509192919290803590602001906401000000008111156106f857600080fd5b82018360208201111561070a57600080fd5b8035906020019184600183028401116401000000008311171561072c57600080fd5b91908080601f016020809104026020016040519081016040528093929190818152602001838380828437600081840152601f19601f820116905080830192505050505050509192919290803590602001909291905050506113f3565b005b6107926117f2565b6040518082815260200191505060405180910390f35b6107d4600480360360208110156107be57600080fd5b81019080803590602001909291905050506117ff565b005b6108af600480360360408110156107ec57600080fd5b81019080803573ffffffffffffffffffffffffffffffffffffffff1690602001909291908035906020019064010000000081111561082957600080fd5b82018360208201111561083b57600080fd5b8035906020019184600183028401116401000000008311171561085d57600080fd5b91908080601f016020809104026020016040519081016040528093929190818152602001838380828437600081840152601f19601f820116905080830192505050505050509192919290505050611839565b005b6108dd600480360360208110156108c757600080fd5b81019080803590602001909291905050506119c8565b604051808873ffffffffffffffffffffffffffffffffffffffff1673ffffffffffffffffffffffffffffffffffffffff1681526020018781526020018060200180602001806020018060200186815260200185810385528a818151815260200191508051906020019080838360005b8381101561096757808201518184015260208101905061094c565b50505050905090810190601f1680156109945780820380516001836020036101000a031916815260200191505b50858103845289818151815260200191508051906020019080838360005b838110156109cd5780820151818401526020810190506109b2565b50505050905090810190601f1680156109fa5780820380516001836020036101000a031916815260200191505b50858103835288818151815260200191508051906020019080838360005b83811015610a33578082015181840152602081019050610a18565b50505050905090810190601f168015610a605780820380516001836020036101000a031916815260200191505b50858103825287818151815260200191508051906020019080838360005b83811015610a99578082015181840152602081019050610a7e565b50505050905090810190601f168015610ac65780820380516001836020036101000a031916815260200191505b509b50505050505050505050505060405180910390f35b610cd8600480360360a0811015610af357600080fd5b810190808035906020019092919080359060200190640100000000811115610b1a57600080fd5b820183602082011115610b2c57600080fd5b80359060200191846001830284011164010000000083111715610b4e57600080fd5b91908080601f016020809104026020016040519081016040528093929190818152602001838380828437600081840152601f19601f8201169050808301925050505050505091929192908035906020019092919080359060200190640100000000811115610bbb57600080fd5b820183602082011115610bcd57600080fd5b80359060200191846001830284011164010000000083111715610bef57600080fd5b91908080601f016020809104026020016040519081016040528093929190818152602001838380828437600081840152601f19601f82011690508083019250505050505050919291929080359060200190640100000000811115610c5257600080fd5b820183602082011115610c6457600080fd5b80359060200191846001830284011164010000000083111715610c8657600080fd5b91908080601f016020809104026020016040519081016040528093929190818152602001838380828437600081840152601f19601f820116905080830192505050505050509192919290505050611dd8565b005b610ce2612061565b6040518082815260200191505060405180910390f35b6000806000806002600086815260200190815260200160002060000160009054906101000a900473ffffffffffffffffffffffffffffffffffffffff166002600087815260200190815260200160002060010160009054906101000a900473ffffffffffffffffffffffffffffffffffffffff166002600088815260200190815260200160002060020154600260008981526020019081526020016000206003015493509350935093509193509193565b8373ffffffffffffffffffffffffffffffffffffffff163373ffffffffffffffffffffffffffffffffffffffff1614610e2d576040517f08c379a00000000000000000000000000000000000000000000000000000000081526004018080602001828103825260298152602001806121a86029913960400191505060405180910390fd5b600082905060405180608001604052808673ffffffffffffffffffffffffffffffffffffffff1681526020018573ffffffffffffffffffffffffffffffffffffffff168152602001848152602001838152506002600083815260200190815260200160002060008201518160000160006101000a81548173ffffffffffffffffffffffffffffffffffffffff021916908373ffffffffffffffffffffffffffffffffffffffff16021790555060208201518160010160006101000a81548173ffffffffffffffffffffffffffffffffffffffff021916908373ffffffffffffffffffffffffffffffffffffffff16021790555060408201518160020155606082015181600301559050505050505050565b6000806060600060608060016000888152602001908152602001600020600101546001600089815260200190815260200160002060000160009054906101000a900473ffffffffffffffffffffffffffffffffffffffff16600160008a8152602001908152602001600020600301600160008b815260200190815260200160002060020154600160008c8152602001908152602001600020600401600160008d8152602001908152602001600020600501838054600181600116156101000203166002900480601f0160208091040260200160405190810160405280929190818152602001828054600181600116156101000203166002900480156110845780601f1061105957610100808354040283529160200191611084565b820191906000526020600020905b81548152906001019060200180831161106757829003601f168201915b50505050509350818054600181600116156101000203166002900480601f0160208091040260200160405190810160405280929190818152602001828054600181600116156101000203166002900480156111205780601f106110f557610100808354040283529160200191611120565b820191906000526020600020905b81548152906001019060200180831161110357829003601f168201915b50505050509150808054600181600116156101000203166002900480601f0160208091040260200160405190810160405280929190818152602001828054600181600116156101000203166002900480156111bc5780601f10611191576101008083540402835291602001916111bc565b820191906000526020600020905b81548152906001019060200180831161119f57829003601f168201915b5050505050905095509550955095509550955091939550919395565b6000806060600480549050841080156111f2575060008410155b611264576040517f08c379a000000000000000000000000000000000000000000000000000000000815260040180806020018281038252601c8152602001807f4e6f20766572696669656420656d706c6f7965727320666f756e64210000000081525060200191505060405180910390fd5b6004848154811061127157fe5b9060005260206000209060030201600101546004858154811061129057fe5b906000526020600020906003020160000160009054906101000a900473ffffffffffffffffffffffffffffffffffffffff16600486815481106112cf57fe5b9060005260206000209060030201600201808054600181600116156101000203166002900480601f0160208091040260200160405190810160405280929190818152602001828054600181600116156101000203166002900480156113755780601f1061134a57610100808354040283529160200191611375565b820191906000526020600020905b81548152906001019060200180831161135857829003601f168201915b505050505090509250925092509193909250565b6000806003838154811061139957fe5b906000526020600020906008020160000160009054906101000a900473ffffffffffffffffffffffffffffffffffffffff16600384815481106113d857fe5b90600052602060002090600802016002015491509150915091565b6000809054906101000a900473ffffffffffffffffffffffffffffffffffffffff1673ffffffffffffffffffffffffffffffffffffffff163373ffffffffffffffffffffffffffffffffffffffff1614156114b6576040517f08c379a00000000000000000000000000000000000000000000000000000000081526004018080602001828103825260138152602001807f4f776e65722063616e6e6f7420656e726f6c6c0000000000000000000000000081525060200191505060405180910390fd5b85600481815481106114c457fe5b906000526020600020906003020160010154811461154a576040517f08c379a000000000000000000000000000000000000000000000000000000000815260040180806020018281038252601a8152602001807f456d706c6f79657220496420646f65736e6f74206d617463682100000000000081525060200191505060405180910390fd5b6004818154811061155757fe5b906000526020600020906003020160000160009054906101000a900473ffffffffffffffffffffffffffffffffffffffff1673ffffffffffffffffffffffffffffffffffffffff163373ffffffffffffffffffffffffffffffffffffffff1614611629576040517f08c379a00000000000000000000000000000000000000000000000000000000081526004018080602001828103825260188152602001807f4e6f74206120766572696669656420656d706c6f79657221000000000000000081525060200191505060405180910390fd5b6000600380549050905061163b61206e565b6040518061010001604052803373ffffffffffffffffffffffffffffffffffffffff1681526020018381526020018581526020018981526020018881526020018781526020018681526020016001151581525090506003819080600181540180825580915050906001820390600052602060002090600802016000909192909190915060008201518160000160006101000a81548173ffffffffffffffffffffffffffffffffffffffff021916908373ffffffffffffffffffffffffffffffffffffffff160217905550602082015181600101556040820151816002015560608201518160030190805190602001906117359291906120cb565b5060808201518160040190805190602001906117529291906120cb565b5060a082015181600501908051906020019061176f9291906120cb565b5060c082015181600601908051906020019061178c9291906120cb565b5060e08201518160070160006101000a81548160ff0219169083151502179055505050507f92447c6ecd808d390fb352da0dc90a05275b074c43bf302132a27fabafa6872b826040518082815260200191505060405180910390a1505050505050505050565b6000600380549050905090565b60006003828154811061180e57fe5b906000526020600020906008020160070160006101000a81548160ff02191690831515021790555050565b6000809054906101000a900473ffffffffffffffffffffffffffffffffffffffff1673ffffffffffffffffffffffffffffffffffffffff163373ffffffffffffffffffffffffffffffffffffffff16146118de576040517f08c379a00000000000000000000000000000000000000000000000000000000081526004018080602001828103825260268152602001806121d16026913960400191505060405180910390fd5b600060048054905090506118f061214b565b60405180606001604052808573ffffffffffffffffffffffffffffffffffffffff1681526020018381526020018481525090506004819080600181540180825580915050906001820390600052602060002090600302016000909192909190915060008201518160000160006101000a81548173ffffffffffffffffffffffffffffffffffffffff021916908373ffffffffffffffffffffffffffffffffffffffff1602179055506020820151816001015560408201518160020190805190602001906119be9291906120cb565b5050505050505050565b6000806060806060806000600380549050881080156119e8575060008810155b611a5a576040517f08c379a000000000000000000000000000000000000000000000000000000000815260040180806020018281038252600d8152602001807f4e6f206a6f6220666f756e64210000000000000000000000000000000000000081525060200191505060405180910390fd5b60038881548110611a6757fe5b906000526020600020906008020160000160009054906101000a900473ffffffffffffffffffffffffffffffffffffffff1660038981548110611aa657fe5b90600052602060002090600802016001015460038a81548110611ac557fe5b906000526020600020906008020160030160038b81548110611ae357fe5b906000526020600020906008020160040160038c81548110611b0157fe5b906000526020600020906008020160050160038d81548110611b1f57fe5b906000526020600020906008020160060160038e81548110611b3d57fe5b906000526020600020906008020160020154848054600181600116156101000203166002900480601f016020809104026020016040519081016040528092919081815260200182805460018160011615610100020316600290048015611be45780601f10611bb957610100808354040283529160200191611be4565b820191906000526020600020905b815481529060010190602001808311611bc757829003601f168201915b50505050509450838054600181600116156101000203166002900480601f016020809104026020016040519081016040528092919081815260200182805460018160011615610100020316600290048015611c805780601f10611c5557610100808354040283529160200191611c80565b820191906000526020600020905b815481529060010190602001808311611c6357829003601f168201915b50505050509350828054600181600116156101000203166002900480601f016020809104026020016040519081016040528092919081815260200182805460018160011615610100020316600290048015611d1c5780601f10611cf157610100808354040283529160200191611d1c565b820191906000526020600020905b815481529060010190602001808311611cff57829003601f168201915b50505050509250818054600181600116156101000203166002900480601f016020809104026020016040519081016040528092919081815260200182805460018160011615610100020316600290048015611db85780601f10611d8d57610100808354040283529160200191611db8565b820191906000526020600020905b815481529060010190602001808311611d9b57829003601f168201915b505050505091509650965096509650965096509650919395979092949650565b6000809054906101000a900473ffffffffffffffffffffffffffffffffffffffff1673ffffffffffffffffffffffffffffffffffffffff163373ffffffffffffffffffffffffffffffffffffffff161415611e9b576040517f08c379a00000000000000000000000000000000000000000000000000000000081526004018080602001828103825260138152602001807f4f776e65722063616e6e6f7420656e726f6c6c0000000000000000000000000081525060200191505060405180910390fd5b60008590506001151560038781548110611eb157fe5b906000526020600020906008020160070160009054906101000a900460ff16151514611f45576040517f08c379a00000000000000000000000000000000000000000000000000000000081526004018080602001828103825260118152602001807f4e6f2061637469766520696e74616b657300000000000000000000000000000081525060200191505060405180910390fd5b6040518060c001604052803373ffffffffffffffffffffffffffffffffffffffff168152602001878152602001858152602001868152602001848152602001838152506001600083815260200190815260200160002060008201518160000160006101000a81548173ffffffffffffffffffffffffffffffffffffffff021916908373ffffffffffffffffffffffffffffffffffffffff160217905550602082015181600101556040820151816002015560608201518160030190805190602001906120129291906120cb565b50608082015181600401908051906020019061202f9291906120cb565b5060a082015181600501908051906020019061204c9291906120cb565b50905050612059866117ff565b505050505050565b6000600480549050905090565b604051806101000160405280600073ffffffffffffffffffffffffffffffffffffffff1681526020016000815260200160008152602001606081526020016060815260200160608152602001606081526020016000151581525090565b828054600181600116156101000203166002900490600052602060002090601f016020900481019282601f1061210c57805160ff191683800117855561213a565b8280016001018555821561213a579182015b8281111561213957825182559160200191906001019061211e565b5b5090506121479190612182565b5090565b6040518060600160405280600073ffffffffffffffffffffffffffffffffffffffff16815260200160008152602001606081525090565b6121a491905b808211156121a0576000816000905550600101612188565b5090565b9056fe456d706c6f796572206f6e6c792063616e2061646420506572666f726d616e6365204d6174726978214f776e657273206f6e6c792063616e2061646420766572696669656420656d706c6f79657273a265627a7a72315820c539666a67041e7b1c0dcb11ddfa38676141297b7c4ce2bb99df39917acfbfd264736f6c63430005100032",
  "source": "// SPDX-License-Identifier: MIT\r\npragma solidity >= 0.5.0 < 0.7.0;\r\n\r\ncontract CIEG {\r\n    \r\n  address owner;\r\n  \r\n  constructor() public {\r\n    owner = msg.sender;\r\n  }\r\n  \r\n  struct Candidate {\r\n    address applCandAddress;\r\n    uint256 applJobId;\r\n    uint256 age;\r\n    string name;\r\n    string phNumber;\r\n    string qual;\r\n  }\r\n\r\n  struct Job {\r\n    address empAddress;\r\n    uint256 id;\r\n    uint256 reward;\r\n    string companyName;\r\n    string jobTitle;\r\n    string location;\r\n    string jobType;\r\n    bool status;\r\n  }\r\n\r\n  struct VerifiedEmployer {\r\n    address verifiedEmpAddress;\r\n    uint256 id;\r\n    string verifiedEmpName;\r\n  }\r\n\r\n  struct PerformanceMatrix {\r\n    address candAddress;\r\n    address vEmpAddress;\r\n    uint256 enrolledJobId;\r\n    uint256 evalScore;\r\n  }\r\n\r\n  mapping(uint256 => Candidate) private candidates;\r\n  mapping(uint256 => PerformanceMatrix) private perfMatrix;\r\n  Job[] private jobs;\r\n  VerifiedEmployer[] private verifiedEmployers;\r\n\r\n  event JobCreated(uint256 _jobId);\r\n  \r\n  modifier owner_disallow() {\r\n    require(msg.sender != owner, \"Owner cannot enroll\");\r\n    _;\r\n  }\r\n  \r\n  modifier only_owner() {\r\n      require(msg.sender == owner, \"Owners only can add verified employers\");\r\n      _;\r\n  }\r\n\r\n  modifier verified_employer(uint256 _evid) {\r\n      require(_evid == verifiedEmployers[_evid].id, \"Employer Id doesnot match!\");\r\n      require(msg.sender == verifiedEmployers[_evid].verifiedEmpAddress, \"Not a verified employer!\");\r\n      _;\r\n  }\r\n  \r\n  function addVerifiedEmployer(address _empAddress, string memory _empName) public only_owner {\r\n      uint256 empVId = verifiedEmployers.length;\r\n      \r\n      VerifiedEmployer memory newVEmp = VerifiedEmployer({\r\n          id: empVId,\r\n          verifiedEmpAddress: _empAddress,\r\n          verifiedEmpName: _empName\r\n      });\r\n      verifiedEmployers.push(newVEmp);\r\n  }\r\n\r\n  function addPerfMatrix(address _vEmpAddress, address _candAddress, uint256 _enrolledJobId, uint256 _evalScore) public {\r\n      require(msg.sender == _vEmpAddress, \"Employer only can add Performance Matrix!\");\r\n      uint256 enrldJobId = _enrolledJobId;\r\n      perfMatrix[enrldJobId] = PerformanceMatrix(_vEmpAddress, _candAddress, _enrolledJobId, _evalScore);\r\n  }\r\n \r\n  function addCandidate(uint256 _applJobId, string memory _name, uint256 _age, string memory _phNumber, string memory _qual) public owner_disallow {\r\n        uint256 applJob = _applJobId;\r\n        require(jobs[_applJobId].status == true, \"No active intakes\");\r\n        candidates[applJob] = Candidate(msg.sender, _applJobId, _age, _name, _phNumber, _qual);\r\n        changeJobStatus(_applJobId);\r\n  }\r\n  \r\n  function addJob(uint256 _evid, string memory _companyName, string memory _jobTitle, string memory _location, string memory _jobType, uint256 _reward) public owner_disallow verified_employer(_evid){\r\n      uint256 jobId = jobs.length;\r\n\r\n      Job memory newJob = Job({\r\n        empAddress: msg.sender,\r\n        id: jobId,\r\n        reward: _reward,\r\n        companyName: _companyName,\r\n        jobTitle: _jobTitle,\r\n        location: _location,\r\n        jobType: _jobType,\r\n        status: true\r\n      });\r\n\r\n      jobs.push(newJob);\r\n      emit JobCreated(jobId);\r\n  }\r\n  \r\n  function changeJobStatus(uint256 _jobId) public {\r\n      jobs[_jobId].status = false;\r\n  }\r\n\r\n  function getJob(uint256 _jobId) external view returns(address, uint256, string memory, string memory, string memory, string memory, uint256) {\r\n    require(_jobId < jobs.length && _jobId >=0, \"No job found!\");\r\n    return(\r\n      jobs[_jobId].empAddress,    \r\n      jobs[_jobId].id,\r\n      jobs[_jobId].companyName,\r\n      jobs[_jobId].jobTitle,\r\n      jobs[_jobId].location,\r\n      jobs[_jobId].jobType,\r\n      jobs[_jobId].reward\r\n    );\r\n  }\r\n\r\n  function getJobDetails(uint256 _jobId) external view returns(address, uint256) {\r\n    return(\r\n      jobs[_jobId].empAddress,\r\n      jobs[_jobId].reward    \r\n    );\r\n  }\r\n\r\n  function getAllJobs() external view returns(uint256) {\r\n    return jobs.length;\r\n  }\r\n  \r\n  function getCandidate(uint256 _candidate) external view returns(uint256, address, string memory, uint256, string memory, string memory) {\r\n    return (\r\n      candidates[_candidate].applJobId,\r\n      candidates[_candidate].applCandAddress,\r\n      candidates[_candidate].name,\r\n      candidates[_candidate].age,\r\n      candidates[_candidate].phNumber,\r\n      candidates[_candidate].qual\r\n      );\r\n  }\r\n  \r\n  function getAllVEmployers() external view returns(uint256) {\r\n      return verifiedEmployers.length;\r\n  }\r\n  \r\n  function getVerifiedEmployer(uint256 _empVId) external view returns(uint256, address, string memory) {\r\n    require(_empVId < verifiedEmployers.length && _empVId >=0, \"No verified employers found!\");\r\n    return(\r\n        verifiedEmployers[_empVId].id,\r\n        verifiedEmployers[_empVId].verifiedEmpAddress,\r\n        verifiedEmployers[_empVId].verifiedEmpName\r\n    );\r\n  }\r\n\r\n  function getPerfMatrix(uint256 _jobId) external view returns(address, address ,uint256, uint256) {\r\n    return (\r\n        perfMatrix[_jobId].candAddress,\r\n        perfMatrix[_jobId].vEmpAddress,\r\n        perfMatrix[_jobId].enrolledJobId,\r\n        perfMatrix[_jobId].evalScore\r\n    );\r\n  }\r\n\r\n}\r\n",
  "sourcePath": "D:\\CIEG\\ced-b4-g08\\frontend\\truffle\\contracts\\CIEG.sol",
  "compiler": {
    "name": "solc",
    "version": "0.5.16+commit.9c3226ce.Emscripten.clang"
  },
  "schemaVersion": "3.0.23",
  "updatedAt": "2020-08-07T12:13:49.639Z",
  "networkType": "ethereum",
  "devdoc": {
    "methods": {}
  },
  "userdoc": {
    "methods": {}
  }
}