{
  "contractName": "CIEG",
  "abi": [
    {
      "inputs": [],
      "payable": false,
      "stateMutability": "nonpayable",
      "type": "constructor"
    },
    {
      "anonymous": false,
      "inputs": [
        {
          "indexed": false,
          "internalType": "uint256",
          "name": "_jobId",
          "type": "uint256"
        }
      ],
      "name": "JobCreated",
      "type": "event"
    },
    {
      "constant": false,
      "inputs": [
        {
          "internalType": "address",
          "name": "_empAddress",
          "type": "address"
        },
        {
          "internalType": "string",
          "name": "_empName",
          "type": "string"
        }
      ],
      "name": "addVerifiedEmployer",
      "outputs": [],
      "payable": false,
      "stateMutability": "nonpayable",
      "type": "function"
    },
    {
      "constant": false,
      "inputs": [
        {
          "internalType": "address",
          "name": "_vEmpAddress",
          "type": "address"
        },
        {
          "internalType": "address",
          "name": "_candAddress",
          "type": "address"
        },
        {
          "internalType": "uint256",
          "name": "_enrolledJobId",
          "type": "uint256"
        },
        {
          "internalType": "uint256",
          "name": "_evalScore",
          "type": "uint256"
        }
      ],
      "name": "addPerfMatrix",
      "outputs": [],
      "payable": false,
      "stateMutability": "nonpayable",
      "type": "function"
    },
    {
      "constant": false,
      "inputs": [
        {
          "internalType": "uint256",
          "name": "_applJobId",
          "type": "uint256"
        },
        {
          "internalType": "string",
          "name": "_name",
          "type": "string"
        },
        {
          "internalType": "uint256",
          "name": "_age",
          "type": "uint256"
        },
        {
          "internalType": "string",
          "name": "_phNumber",
          "type": "string"
        },
        {
          "internalType": "string",
          "name": "_qual",
          "type": "string"
        }
      ],
      "name": "addCandidate",
      "outputs": [],
      "payable": false,
      "stateMutability": "nonpayable",
      "type": "function"
    },
    {
      "constant": false,
      "inputs": [
        {
          "internalType": "string",
          "name": "_companyName",
          "type": "string"
        },
        {
          "internalType": "string",
          "name": "_jobTitle",
          "type": "string"
        },
        {
          "internalType": "string",
          "name": "_location",
          "type": "string"
        },
        {
          "internalType": "string",
          "name": "_jobType",
          "type": "string"
        },
        {
          "internalType": "uint256",
          "name": "_reward",
          "type": "uint256"
        }
      ],
      "name": "addJob",
      "outputs": [],
      "payable": false,
      "stateMutability": "nonpayable",
      "type": "function"
    },
    {
      "constant": false,
      "inputs": [
        {
          "internalType": "uint256",
          "name": "_jobId",
          "type": "uint256"
        }
      ],
      "name": "changeJobStatus",
      "outputs": [],
      "payable": false,
      "stateMutability": "nonpayable",
      "type": "function"
    },
    {
      "constant": true,
      "inputs": [
        {
          "internalType": "uint256",
          "name": "_jobId",
          "type": "uint256"
        }
      ],
      "name": "getJob",
      "outputs": [
        {
          "internalType": "address",
          "name": "",
          "type": "address"
        },
        {
          "internalType": "uint256",
          "name": "",
          "type": "uint256"
        },
        {
          "internalType": "string",
          "name": "",
          "type": "string"
        },
        {
          "internalType": "string",
          "name": "",
          "type": "string"
        },
        {
          "internalType": "string",
          "name": "",
          "type": "string"
        },
        {
          "internalType": "string",
          "name": "",
          "type": "string"
        },
        {
          "internalType": "uint256",
          "name": "",
          "type": "uint256"
        }
      ],
      "payable": false,
      "stateMutability": "view",
      "type": "function"
    },
    {
      "constant": true,
      "inputs": [
        {
          "internalType": "uint256",
          "name": "_jobId",
          "type": "uint256"
        }
      ],
      "name": "getJobDetails",
      "outputs": [
        {
          "internalType": "address",
          "name": "",
          "type": "address"
        },
        {
          "internalType": "uint256",
          "name": "",
          "type": "uint256"
        }
      ],
      "payable": false,
      "stateMutability": "view",
      "type": "function"
    },
    {
      "constant": true,
      "inputs": [],
      "name": "getAllJobs",
      "outputs": [
        {
          "internalType": "uint256",
          "name": "",
          "type": "uint256"
        }
      ],
      "payable": false,
      "stateMutability": "view",
      "type": "function"
    },
    {
      "constant": true,
      "inputs": [
        {
          "internalType": "uint256",
          "name": "_candidate",
          "type": "uint256"
        }
      ],
      "name": "getCandidate",
      "outputs": [
        {
          "internalType": "uint256",
          "name": "",
          "type": "uint256"
        },
        {
          "internalType": "address",
          "name": "",
          "type": "address"
        },
        {
          "internalType": "string",
          "name": "",
          "type": "string"
        },
        {
          "internalType": "uint256",
          "name": "",
          "type": "uint256"
        },
        {
          "internalType": "string",
          "name": "",
          "type": "string"
        },
        {
          "internalType": "string",
          "name": "",
          "type": "string"
        }
      ],
      "payable": false,
      "stateMutability": "view",
      "type": "function"
    },
    {
      "constant": true,
      "inputs": [],
      "name": "getAllVEmployers",
      "outputs": [
        {
          "internalType": "uint256",
          "name": "",
          "type": "uint256"
        }
      ],
      "payable": false,
      "stateMutability": "view",
      "type": "function"
    },
    {
      "constant": true,
      "inputs": [
        {
          "internalType": "uint256",
          "name": "_empVId",
          "type": "uint256"
        }
      ],
      "name": "getVerifiedEmployer",
      "outputs": [
        {
          "internalType": "uint256",
          "name": "",
          "type": "uint256"
        },
        {
          "internalType": "address",
          "name": "",
          "type": "address"
        },
        {
          "internalType": "string",
          "name": "",
          "type": "string"
        }
      ],
      "payable": false,
      "stateMutability": "view",
      "type": "function"
    },
    {
      "constant": true,
      "inputs": [
        {
          "internalType": "uint256",
          "name": "_jobId",
          "type": "uint256"
        }
      ],
      "name": "getPerfMatrix",
      "outputs": [
        {
          "internalType": "address",
          "name": "",
          "type": "address"
        },
        {
          "internalType": "address",
          "name": "",
          "type": "address"
        },
        {
          "internalType": "uint256",
          "name": "",
          "type": "uint256"
        },
        {
          "internalType": "uint256",
          "name": "",
          "type": "uint256"
        }
      ],
      "payable": false,
      "stateMutability": "view",
      "type": "function"
    }
  ],
  "bytecode": "0x608060405234801561001057600080fd5b50336000806101000a81548173ffffffffffffffffffffffffffffffffffffffff021916908373ffffffffffffffffffffffffffffffffffffffff160217905550611fff806100606000396000f3fe608060405234801561001057600080fd5b50600436106100b45760003560e01c8063a7979a5411610071578063a7979a5414610514578063ab5d8d9214610542578063bf22c4571461061d578063c3fe887d14610849578063ca7a650414610a46578063e6ccbdcd14610cd0576100b4565b80632819cfdb146100b9578063302657811461016857806335b8e820146101e05780634c11f0bd146103a05780634cac35c614610481578063965a79fb146104f6575b600080fd5b6100e5600480360360208110156100cf57600080fd5b8101908080359060200190929190505050610cee565b604051808573ffffffffffffffffffffffffffffffffffffffff1673ffffffffffffffffffffffffffffffffffffffff1681526020018473ffffffffffffffffffffffffffffffffffffffff1673ffffffffffffffffffffffffffffffffffffffff16815260200183815260200182815260200194505050505060405180910390f35b6101de6004803603608081101561017e57600080fd5b81019080803573ffffffffffffffffffffffffffffffffffffffff169060200190929190803573ffffffffffffffffffffffffffffffffffffffff1690602001909291908035906020019092919080359060200190929190505050610d9f565b005b61020c600480360360208110156101f657600080fd5b8101908080359060200190929190505050610eb0565b604051808781526020018673ffffffffffffffffffffffffffffffffffffffff1673ffffffffffffffffffffffffffffffffffffffff168152602001806020018581526020018060200180602001848103845288818151815260200191508051906020019080838360005b83811015610292578082015181840152602081019050610277565b50505050905090810190601f1680156102bf5780820380516001836020036101000a031916815260200191505b50848103835286818151815260200191508051906020019080838360005b838110156102f85780820151818401526020810190506102dd565b50505050905090810190601f1680156103255780820380516001836020036101000a031916815260200191505b50848103825285818151815260200191508051906020019080838360005b8381101561035e578082015181840152602081019050610343565b50505050905090810190601f16801561038b5780820380516001836020036101000a031916815260200191505b50995050505050505050505060405180910390f35b6103cc600480360360208110156103b657600080fd5b810190808035906020019092919050505061114a565b604051808481526020018373ffffffffffffffffffffffffffffffffffffffff1673ffffffffffffffffffffffffffffffffffffffff16815260200180602001828103825283818151815260200191508051906020019080838360005b83811015610444578082015181840152602081019050610429565b50505050905090810190601f1680156104715780820380516001836020036101000a031916815260200191505b5094505050505060405180910390f35b6104ad6004803603602081101561049757600080fd5b81019080803590602001909291905050506112fb565b604051808373ffffffffffffffffffffffffffffffffffffffff1673ffffffffffffffffffffffffffffffffffffffff1681526020018281526020019250505060405180910390f35b6104fe611365565b6040518082815260200191505060405180910390f35b6105406004803603602081101561052a57600080fd5b8101908080359060200190929190505050611372565b005b61061b6004803603604081101561055857600080fd5b81019080803573ffffffffffffffffffffffffffffffffffffffff1690602001909291908035906020019064010000000081111561059557600080fd5b8201836020820111156105a757600080fd5b803590602001918460018302840111640100000000831117156105c957600080fd5b91908080601f016020809104026020016040519081016040528093929190818152602001838380828437600081840152601f19601f8201169050808301925050505050505091929192905050506113ac565b005b6106496004803603602081101561063357600080fd5b810190808035906020019092919050505061153b565b604051808873ffffffffffffffffffffffffffffffffffffffff1673ffffffffffffffffffffffffffffffffffffffff1681526020018781526020018060200180602001806020018060200186815260200185810385528a818151815260200191508051906020019080838360005b838110156106d35780820151818401526020810190506106b8565b50505050905090810190601f1680156107005780820380516001836020036101000a031916815260200191505b50858103845289818151815260200191508051906020019080838360005b8381101561073957808201518184015260208101905061071e565b50505050905090810190601f1680156107665780820380516001836020036101000a031916815260200191505b50858103835288818151815260200191508051906020019080838360005b8381101561079f578082015181840152602081019050610784565b50505050905090810190601f1680156107cc5780820380516001836020036101000a031916815260200191505b50858103825287818151815260200191508051906020019080838360005b838110156108055780820151818401526020810190506107ea565b50505050905090810190601f1680156108325780820380516001836020036101000a031916815260200191505b509b50505050505050505050505060405180910390f35b610a44600480360360a081101561085f57600080fd5b81019080803590602001909291908035906020019064010000000081111561088657600080fd5b82018360208201111561089857600080fd5b803590602001918460018302840111640100000000831117156108ba57600080fd5b91908080601f016020809104026020016040519081016040528093929190818152602001838380828437600081840152601f19601f820116905080830192505050505050509192919290803590602001909291908035906020019064010000000081111561092757600080fd5b82018360208201111561093957600080fd5b8035906020019184600183028401116401000000008311171561095b57600080fd5b91908080601f016020809104026020016040519081016040528093929190818152602001838380828437600081840152601f19601f820116905080830192505050505050509192919290803590602001906401000000008111156109be57600080fd5b8201836020820111156109d057600080fd5b803590602001918460018302840111640100000000831117156109f257600080fd5b91908080601f016020809104026020016040519081016040528093929190818152602001838380828437600081840152601f19601f82011690508083019250505050505050919291929050505061194b565b005b610cce600480360360a0811015610a5c57600080fd5b8101908080359060200190640100000000811115610a7957600080fd5b820183602082011115610a8b57600080fd5b80359060200191846001830284011164010000000083111715610aad57600080fd5b91908080601f016020809104026020016040519081016040528093929190818152602001838380828437600081840152601f19601f82011690508083019250505050505050919291929080359060200190640100000000811115610b1057600080fd5b820183602082011115610b2257600080fd5b80359060200191846001830284011164010000000083111715610b4457600080fd5b91908080601f016020809104026020016040519081016040528093929190818152602001838380828437600081840152601f19601f82011690508083019250505050505050919291929080359060200190640100000000811115610ba757600080fd5b820183602082011115610bb957600080fd5b80359060200191846001830284011164010000000083111715610bdb57600080fd5b91908080601f016020809104026020016040519081016040528093929190818152602001838380828437600081840152601f19601f82011690508083019250505050505050919291929080359060200190640100000000811115610c3e57600080fd5b820183602082011115610c5057600080fd5b80359060200191846001830284011164010000000083111715610c7257600080fd5b91908080601f016020809104026020016040519081016040528093929190818152602001838380828437600081840152601f19601f82011690508083019250505050505050919291929080359060200190929190505050611bd4565b005b610cd8611e5e565b6040518082815260200191505060405180910390f35b6000806000806002600086815260200190815260200160002060000160009054906101000a900473ffffffffffffffffffffffffffffffffffffffff166002600087815260200190815260200160002060010160009054906101000a900473ffffffffffffffffffffffffffffffffffffffff166002600088815260200190815260200160002060020154600260008981526020019081526020016000206003015493509350935093509193509193565b600082905060405180608001604052808673ffffffffffffffffffffffffffffffffffffffff1681526020018573ffffffffffffffffffffffffffffffffffffffff168152602001848152602001838152506002600083815260200190815260200160002060008201518160000160006101000a81548173ffffffffffffffffffffffffffffffffffffffff021916908373ffffffffffffffffffffffffffffffffffffffff16021790555060208201518160010160006101000a81548173ffffffffffffffffffffffffffffffffffffffff021916908373ffffffffffffffffffffffffffffffffffffffff16021790555060408201518160020155606082015181600301559050505050505050565b6000806060600060608060016000888152602001908152602001600020600101546001600089815260200190815260200160002060000160009054906101000a900473ffffffffffffffffffffffffffffffffffffffff16600160008a8152602001908152602001600020600301600160008b815260200190815260200160002060020154600160008c8152602001908152602001600020600401600160008d8152602001908152602001600020600501838054600181600116156101000203166002900480601f016020809104026020016040519081016040528092919081815260200182805460018160011615610100020316600290048015610ff65780601f10610fcb57610100808354040283529160200191610ff6565b820191906000526020600020905b815481529060010190602001808311610fd957829003601f168201915b50505050509350818054600181600116156101000203166002900480601f0160208091040260200160405190810160405280929190818152602001828054600181600116156101000203166002900480156110925780601f1061106757610100808354040283529160200191611092565b820191906000526020600020905b81548152906001019060200180831161107557829003601f168201915b50505050509150808054600181600116156101000203166002900480601f01602080910402602001604051908101604052809291908181526020018280546001816001161561010002031660029004801561112e5780601f106111035761010080835404028352916020019161112e565b820191906000526020600020905b81548152906001019060200180831161111157829003601f168201915b5050505050905095509550955095509550955091939550919395565b600080606060048054905084108015611164575060008410155b6111d6576040517f08c379a000000000000000000000000000000000000000000000000000000000815260040180806020018281038252601c8152602001807f4e6f20766572696669656420656d706c6f7965727320666f756e64210000000081525060200191505060405180910390fd5b600484815481106111e357fe5b9060005260206000209060030201600101546004858154811061120257fe5b906000526020600020906003020160000160009054906101000a900473ffffffffffffffffffffffffffffffffffffffff166004868154811061124157fe5b9060005260206000209060030201600201808054600181600116156101000203166002900480601f0160208091040260200160405190810160405280929190818152602001828054600181600116156101000203166002900480156112e75780601f106112bc576101008083540402835291602001916112e7565b820191906000526020600020905b8154815290600101906020018083116112ca57829003601f168201915b505050505090509250925092509193909250565b6000806003838154811061130b57fe5b906000526020600020906008020160000160009054906101000a900473ffffffffffffffffffffffffffffffffffffffff166003848154811061134a57fe5b90600052602060002090600802016002015491509150915091565b6000600380549050905090565b60006003828154811061138157fe5b906000526020600020906008020160070160006101000a81548160ff02191690831515021790555050565b6000809054906101000a900473ffffffffffffffffffffffffffffffffffffffff1673ffffffffffffffffffffffffffffffffffffffff163373ffffffffffffffffffffffffffffffffffffffff1614611451576040517f08c379a0000000000000000000000000000000000000000000000000000000008152600401808060200182810382526026815260200180611fa56026913960400191505060405180910390fd5b60006004805490509050611463611e6b565b60405180606001604052808573ffffffffffffffffffffffffffffffffffffffff1681526020018381526020018481525090506004819080600181540180825580915050906001820390600052602060002090600302016000909192909190915060008201518160000160006101000a81548173ffffffffffffffffffffffffffffffffffffffff021916908373ffffffffffffffffffffffffffffffffffffffff160217905550602082015181600101556040820151816002019080519060200190611531929190611ea2565b5050505050505050565b60008060608060608060006003805490508810801561155b575060008810155b6115cd576040517f08c379a000000000000000000000000000000000000000000000000000000000815260040180806020018281038252600d8152602001807f4e6f206a6f6220666f756e64210000000000000000000000000000000000000081525060200191505060405180910390fd5b600388815481106115da57fe5b906000526020600020906008020160000160009054906101000a900473ffffffffffffffffffffffffffffffffffffffff166003898154811061161957fe5b90600052602060002090600802016001015460038a8154811061163857fe5b906000526020600020906008020160030160038b8154811061165657fe5b906000526020600020906008020160040160038c8154811061167457fe5b906000526020600020906008020160050160038d8154811061169257fe5b906000526020600020906008020160060160038e815481106116b057fe5b906000526020600020906008020160020154848054600181600116156101000203166002900480601f0160208091040260200160405190810160405280929190818152602001828054600181600116156101000203166002900480156117575780601f1061172c57610100808354040283529160200191611757565b820191906000526020600020905b81548152906001019060200180831161173a57829003601f168201915b50505050509450838054600181600116156101000203166002900480601f0160208091040260200160405190810160405280929190818152602001828054600181600116156101000203166002900480156117f35780601f106117c8576101008083540402835291602001916117f3565b820191906000526020600020905b8154815290600101906020018083116117d657829003601f168201915b50505050509350828054600181600116156101000203166002900480601f01602080910402602001604051908101604052809291908181526020018280546001816001161561010002031660029004801561188f5780601f106118645761010080835404028352916020019161188f565b820191906000526020600020905b81548152906001019060200180831161187257829003601f168201915b50505050509250818054600181600116156101000203166002900480601f01602080910402602001604051908101604052809291908181526020018280546001816001161561010002031660029004801561192b5780601f106119005761010080835404028352916020019161192b565b820191906000526020600020905b81548152906001019060200180831161190e57829003601f168201915b505050505091509650965096509650965096509650919395979092949650565b6000809054906101000a900473ffffffffffffffffffffffffffffffffffffffff1673ffffffffffffffffffffffffffffffffffffffff163373ffffffffffffffffffffffffffffffffffffffff161415611a0e576040517f08c379a00000000000000000000000000000000000000000000000000000000081526004018080602001828103825260138152602001807f4f776e65722063616e6e6f7420656e726f6c6c0000000000000000000000000081525060200191505060405180910390fd5b60008590506001151560038781548110611a2457fe5b906000526020600020906008020160070160009054906101000a900460ff16151514611ab8576040517f08c379a00000000000000000000000000000000000000000000000000000000081526004018080602001828103825260118152602001807f4e6f2061637469766520696e74616b657300000000000000000000000000000081525060200191505060405180910390fd5b6040518060c001604052803373ffffffffffffffffffffffffffffffffffffffff168152602001878152602001858152602001868152602001848152602001838152506001600083815260200190815260200160002060008201518160000160006101000a81548173ffffffffffffffffffffffffffffffffffffffff021916908373ffffffffffffffffffffffffffffffffffffffff16021790555060208201518160010155604082015181600201556060820151816003019080519060200190611b85929190611ea2565b506080820151816004019080519060200190611ba2929190611ea2565b5060a0820151816005019080519060200190611bbf929190611ea2565b50905050611bcc86611372565b505050505050565b6000809054906101000a900473ffffffffffffffffffffffffffffffffffffffff1673ffffffffffffffffffffffffffffffffffffffff163373ffffffffffffffffffffffffffffffffffffffff161415611c97576040517f08c379a00000000000000000000000000000000000000000000000000000000081526004018080602001828103825260138152602001807f4f776e65722063616e6e6f7420656e726f6c6c0000000000000000000000000081525060200191505060405180910390fd5b60006003805490509050611ca9611f22565b6040518061010001604052803373ffffffffffffffffffffffffffffffffffffffff1681526020018381526020018481526020018881526020018781526020018681526020018581526020016001151581525090506003819080600181540180825580915050906001820390600052602060002090600802016000909192909190915060008201518160000160006101000a81548173ffffffffffffffffffffffffffffffffffffffff021916908373ffffffffffffffffffffffffffffffffffffffff16021790555060208201518160010155604082015181600201556060820151816003019080519060200190611da3929190611ea2565b506080820151816004019080519060200190611dc0929190611ea2565b5060a0820151816005019080519060200190611ddd929190611ea2565b5060c0820151816006019080519060200190611dfa929190611ea2565b5060e08201518160070160006101000a81548160ff0219169083151502179055505050507f92447c6ecd808d390fb352da0dc90a05275b074c43bf302132a27fabafa6872b826040518082815260200191505060405180910390a150505050505050565b6000600480549050905090565b6040518060600160405280600073ffffffffffffffffffffffffffffffffffffffff16815260200160008152602001606081525090565b828054600181600116156101000203166002900490600052602060002090601f016020900481019282601f10611ee357805160ff1916838001178555611f11565b82800160010185558215611f11579182015b82811115611f10578251825591602001919060010190611ef5565b5b509050611f1e9190611f7f565b5090565b604051806101000160405280600073ffffffffffffffffffffffffffffffffffffffff1681526020016000815260200160008152602001606081526020016060815260200160608152602001606081526020016000151581525090565b611fa191905b80821115611f9d576000816000905550600101611f85565b5090565b9056fe4f776e657273206f6e6c792063616e2061646420766572696669656420656d706c6f79657273a265627a7a72315820e16eb5f224224bab83339325d68c86fe7fbe83379b35ff6fb010beeffb6c75fc64736f6c63430005100032",
  "source": "// SPDX-License-Identifier: MIT\npragma solidity >= 0.5.0 < 0.7.0;\n\ncontract CIEG {\n    \n  address owner;\n  \n  constructor() public {\n    owner = msg.sender;\n  }\n  \n  struct Candidate {\n    address applCandAddress;\n    uint256 applJobId;\n    uint256 age;\n    string name;\n    string phNumber;\n    string qual;\n  }\n\n  struct Job {\n    address empAddress;\n    uint256 id;\n    uint256 reward;\n    string companyName;\n    string jobTitle;\n    string location;\n    string jobType;\n    bool status;\n  }\n\n  struct VerifiedEmployer {\n    address verifiedEmpAddress;\n    uint256 id;\n    string verifiedEmpName;\n  }\n\n  struct PerformanceMatrix {\n    address candAddress;\n    address vEmpAddress;\n    uint256 enrolledJobId;\n    uint256 evalScore;\n  }\n\n  mapping(uint256 => Candidate) private candidates;\n  mapping(uint256 => PerformanceMatrix) private perfMatrix;\n  Job[] private jobs;\n  VerifiedEmployer[] private verifiedEmployers;\n\n  event JobCreated(uint256 _jobId);\n  \n  modifier owner_disallow() {\n    require(msg.sender != owner, \"Owner cannot enroll\");\n    _;\n  }\n  \n  modifier only_owner() {\n      require(msg.sender == owner, \"Owners only can add verified employers\");\n      _;\n  }\n  \n  function addVerifiedEmployer(address _empAddress, string memory _empName) public only_owner {\n      uint256 empVId = verifiedEmployers.length;\n      \n      VerifiedEmployer memory newVEmp = VerifiedEmployer({\n          id: empVId,\n          verifiedEmpAddress: _empAddress,\n          verifiedEmpName: _empName\n      });\n      verifiedEmployers.push(newVEmp);\n  }\n\n  function addPerfMatrix(address _vEmpAddress, address _candAddress, uint256 _enrolledJobId, uint256 _evalScore) public {\n      uint256 enrldJobId = _enrolledJobId;\n      perfMatrix[enrldJobId] = PerformanceMatrix(_vEmpAddress, _candAddress, _enrolledJobId, _evalScore);\n  }\n \n  function addCandidate(uint256 _applJobId, string memory _name, uint256 _age, string memory _phNumber, string memory _qual) public owner_disallow {\n        uint256 applJob = _applJobId;\n        require(jobs[_applJobId].status == true, \"No active intakes\");\n        candidates[applJob] = Candidate(msg.sender, _applJobId, _age, _name, _phNumber, _qual);\n        changeJobStatus(_applJobId);\n  }\n  \n  function addJob(string memory _companyName, string memory _jobTitle, string memory _location, string memory _jobType, uint256 _reward) public owner_disallow {\n      uint256 jobId = jobs.length;\n\n      Job memory newJob = Job({\n        empAddress: msg.sender,\n        id: jobId,\n        reward: _reward,\n        companyName: _companyName,\n        jobTitle: _jobTitle,\n        location: _location,\n        jobType: _jobType,\n        status: true\n      });\n\n      jobs.push(newJob);\n      emit JobCreated(jobId);\n  }\n  \n  function changeJobStatus(uint256 _jobId) public {\n      jobs[_jobId].status = false;\n  }\n\n  function getJob(uint256 _jobId) external view returns(address, uint256, string memory, string memory, string memory, string memory, uint256) {\n    require(_jobId < jobs.length && _jobId >=0, \"No job found!\");\n    return(\n      jobs[_jobId].empAddress,    \n      jobs[_jobId].id,\n      jobs[_jobId].companyName,\n      jobs[_jobId].jobTitle,\n      jobs[_jobId].location,\n      jobs[_jobId].jobType,\n      jobs[_jobId].reward\n    );\n  }\n\n  function getJobDetails(uint256 _jobId) external view returns(address, uint256) {\n    return(\n      jobs[_jobId].empAddress,\n      jobs[_jobId].reward    \n    );\n  }\n\n  function getAllJobs() external view returns(uint256) {\n    return jobs.length;\n  }\n  \n  function getCandidate(uint256 _candidate) external view returns(uint256, address, string memory, uint256, string memory, string memory) {\n    return (\n      candidates[_candidate].applJobId,\n      candidates[_candidate].applCandAddress,\n      candidates[_candidate].name,\n      candidates[_candidate].age,\n      candidates[_candidate].phNumber,\n      candidates[_candidate].qual\n      );\n  }\n  \n  function getAllVEmployers() external view returns(uint256) {\n      return verifiedEmployers.length;\n  }\n  \n  function getVerifiedEmployer(uint256 _empVId) external view returns(uint256, address, string memory) {\n    require(_empVId < verifiedEmployers.length && _empVId >=0, \"No verified employers found!\");\n    return(\n        verifiedEmployers[_empVId].id,\n        verifiedEmployers[_empVId].verifiedEmpAddress,\n        verifiedEmployers[_empVId].verifiedEmpName\n    );\n  }\n\n  function getPerfMatrix(uint256 _jobId) external view returns(address, address ,uint256, uint256) {\n    return (\n        perfMatrix[_jobId].candAddress,\n        perfMatrix[_jobId].vEmpAddress,\n        perfMatrix[_jobId].enrolledJobId,\n        perfMatrix[_jobId].evalScore\n    );\n  }\n\n}\n",
  "sourcePath": "D:\\CIEG\\ced-b4-g08\\frontend\\truffle\\contracts\\CIEG.sol",
  "compiler": {
    "name": "solc",
    "version": "0.5.16+commit.9c3226ce.Emscripten.clang"
  },
  "schemaVersion": "3.0.23",
  "updatedAt": "2020-08-06T09:39:29.311Z",
  "networkType": "ethereum",
  "devdoc": {
    "methods": {}
  },
  "userdoc": {
    "methods": {}
  }
}