{
  "contractName": "CIEG",
  "abi": [
    {
      "inputs": [],
      "payable": false,
      "stateMutability": "nonpayable",
      "type": "constructor"
    },
    {
      "anonymous": false,
      "inputs": [
        {
          "indexed": false,
          "internalType": "uint256",
          "name": "_jobId",
          "type": "uint256"
        }
      ],
      "name": "JobCreated",
      "type": "event"
    },
    {
      "constant": false,
      "inputs": [
        {
          "internalType": "address",
          "name": "_empAddress",
          "type": "address"
        },
        {
          "internalType": "string",
          "name": "_empName",
          "type": "string"
        }
      ],
      "name": "addVerifiedEmployer",
      "outputs": [],
      "payable": false,
      "stateMutability": "nonpayable",
      "type": "function"
    },
    {
      "constant": false,
      "inputs": [
        {
          "internalType": "uint256",
          "name": "_applJobId",
          "type": "uint256"
        },
        {
          "internalType": "string",
          "name": "_name",
          "type": "string"
        },
        {
          "internalType": "uint256",
          "name": "_age",
          "type": "uint256"
        },
        {
          "internalType": "string",
          "name": "_phNumber",
          "type": "string"
        },
        {
          "internalType": "string",
          "name": "_qual",
          "type": "string"
        }
      ],
      "name": "addCandidate",
      "outputs": [],
      "payable": false,
      "stateMutability": "nonpayable",
      "type": "function"
    },
    {
      "constant": false,
      "inputs": [
        {
          "internalType": "string",
          "name": "_companyName",
          "type": "string"
        },
        {
          "internalType": "string",
          "name": "_jobTitle",
          "type": "string"
        },
        {
          "internalType": "string",
          "name": "_location",
          "type": "string"
        },
        {
          "internalType": "string",
          "name": "_jobType",
          "type": "string"
        },
        {
          "internalType": "uint256",
          "name": "_reward",
          "type": "uint256"
        }
      ],
      "name": "addJob",
      "outputs": [],
      "payable": false,
      "stateMutability": "nonpayable",
      "type": "function"
    },
    {
      "constant": false,
      "inputs": [
        {
          "internalType": "uint256",
          "name": "_jobId",
          "type": "uint256"
        }
      ],
      "name": "changeJobStatus",
      "outputs": [],
      "payable": false,
      "stateMutability": "nonpayable",
      "type": "function"
    },
    {
      "constant": true,
      "inputs": [
        {
          "internalType": "uint256",
          "name": "_jobId",
          "type": "uint256"
        }
      ],
      "name": "getJob",
      "outputs": [
        {
          "internalType": "address",
          "name": "",
          "type": "address"
        },
        {
          "internalType": "uint256",
          "name": "",
          "type": "uint256"
        },
        {
          "internalType": "string",
          "name": "",
          "type": "string"
        },
        {
          "internalType": "string",
          "name": "",
          "type": "string"
        },
        {
          "internalType": "string",
          "name": "",
          "type": "string"
        },
        {
          "internalType": "string",
          "name": "",
          "type": "string"
        },
        {
          "internalType": "uint256",
          "name": "",
          "type": "uint256"
        }
      ],
      "payable": false,
      "stateMutability": "view",
      "type": "function"
    },
    {
      "constant": true,
      "inputs": [],
      "name": "getAllJobs",
      "outputs": [
        {
          "internalType": "uint256",
          "name": "",
          "type": "uint256"
        }
      ],
      "payable": false,
      "stateMutability": "view",
      "type": "function"
    },
    {
      "constant": true,
      "inputs": [
        {
          "internalType": "uint256",
          "name": "_candidate",
          "type": "uint256"
        }
      ],
      "name": "getCandidate",
      "outputs": [
        {
          "internalType": "uint256",
          "name": "",
          "type": "uint256"
        },
        {
          "internalType": "address",
          "name": "",
          "type": "address"
        },
        {
          "internalType": "string",
          "name": "",
          "type": "string"
        },
        {
          "internalType": "uint256",
          "name": "",
          "type": "uint256"
        },
        {
          "internalType": "string",
          "name": "",
          "type": "string"
        },
        {
          "internalType": "string",
          "name": "",
          "type": "string"
        }
      ],
      "payable": false,
      "stateMutability": "view",
      "type": "function"
    },
    {
      "constant": true,
      "inputs": [],
      "name": "getAllVEmployers",
      "outputs": [
        {
          "internalType": "uint256",
          "name": "",
          "type": "uint256"
        }
      ],
      "payable": false,
      "stateMutability": "view",
      "type": "function"
    },
    {
      "constant": true,
      "inputs": [
        {
          "internalType": "uint256",
          "name": "_empVId",
          "type": "uint256"
        }
      ],
      "name": "getVerifiedEmployer",
      "outputs": [
        {
          "internalType": "uint256",
          "name": "",
          "type": "uint256"
        },
        {
          "internalType": "address",
          "name": "",
          "type": "address"
        },
        {
          "internalType": "string",
          "name": "",
          "type": "string"
        }
      ],
      "payable": false,
      "stateMutability": "view",
      "type": "function"
    }
  ],
  "bytecode": "0x608060405234801561001057600080fd5b50336000806101000a81548173ffffffffffffffffffffffffffffffffffffffff021916908373ffffffffffffffffffffffffffffffffffffffff160217905550611c0d806100606000396000f3fe608060405234801561001057600080fd5b50600436106100935760003560e01c8063ab5d8d9211610066578063ab5d8d9214610385578063bf22c45714610460578063c3fe887d1461068c578063ca7a650414610889578063e6ccbdcd14610b1357610093565b806335b8e820146100985780634c11f0bd14610258578063965a79fb14610339578063a7979a5414610357575b600080fd5b6100c4600480360360208110156100ae57600080fd5b8101908080359060200190929190505050610b31565b604051808781526020018673ffffffffffffffffffffffffffffffffffffffff1673ffffffffffffffffffffffffffffffffffffffff168152602001806020018581526020018060200180602001848103845288818151815260200191508051906020019080838360005b8381101561014a57808201518184015260208101905061012f565b50505050905090810190601f1680156101775780820380516001836020036101000a031916815260200191505b50848103835286818151815260200191508051906020019080838360005b838110156101b0578082015181840152602081019050610195565b50505050905090810190601f1680156101dd5780820380516001836020036101000a031916815260200191505b50848103825285818151815260200191508051906020019080838360005b838110156102165780820151818401526020810190506101fb565b50505050905090810190601f1680156102435780820380516001836020036101000a031916815260200191505b50995050505050505050505060405180910390f35b6102846004803603602081101561026e57600080fd5b8101908080359060200190929190505050610dcb565b604051808481526020018373ffffffffffffffffffffffffffffffffffffffff1673ffffffffffffffffffffffffffffffffffffffff16815260200180602001828103825283818151815260200191508051906020019080838360005b838110156102fc5780820151818401526020810190506102e1565b50505050905090810190601f1680156103295780820380516001836020036101000a031916815260200191505b5094505050505060405180910390f35b610341610f7c565b6040518082815260200191505060405180910390f35b6103836004803603602081101561036d57600080fd5b8101908080359060200190929190505050610f89565b005b61045e6004803603604081101561039b57600080fd5b81019080803573ffffffffffffffffffffffffffffffffffffffff169060200190929190803590602001906401000000008111156103d857600080fd5b8201836020820111156103ea57600080fd5b8035906020019184600183028401116401000000008311171561040c57600080fd5b91908080601f016020809104026020016040519081016040528093929190818152602001838380828437600081840152601f19601f820116905080830192505050505050509192919290505050610fc3565b005b61048c6004803603602081101561047657600080fd5b810190808035906020019092919050505061116f565b604051808873ffffffffffffffffffffffffffffffffffffffff1673ffffffffffffffffffffffffffffffffffffffff1681526020018781526020018060200180602001806020018060200186815260200185810385528a818151815260200191508051906020019080838360005b838110156105165780820151818401526020810190506104fb565b50505050905090810190601f1680156105435780820380516001836020036101000a031916815260200191505b50858103845289818151815260200191508051906020019080838360005b8381101561057c578082015181840152602081019050610561565b50505050905090810190601f1680156105a95780820380516001836020036101000a031916815260200191505b50858103835288818151815260200191508051906020019080838360005b838110156105e25780820151818401526020810190506105c7565b50505050905090810190601f16801561060f5780820380516001836020036101000a031916815260200191505b50858103825287818151815260200191508051906020019080838360005b8381101561064857808201518184015260208101905061062d565b50505050905090810190601f1680156106755780820380516001836020036101000a031916815260200191505b509b50505050505050505050505060405180910390f35b610887600480360360a08110156106a257600080fd5b8101908080359060200190929190803590602001906401000000008111156106c957600080fd5b8201836020820111156106db57600080fd5b803590602001918460018302840111640100000000831117156106fd57600080fd5b91908080601f016020809104026020016040519081016040528093929190818152602001838380828437600081840152601f19601f820116905080830192505050505050509192919290803590602001909291908035906020019064010000000081111561076a57600080fd5b82018360208201111561077c57600080fd5b8035906020019184600183028401116401000000008311171561079e57600080fd5b91908080601f016020809104026020016040519081016040528093929190818152602001838380828437600081840152601f19601f8201169050808301925050505050505091929192908035906020019064010000000081111561080157600080fd5b82018360208201111561081357600080fd5b8035906020019184600183028401116401000000008311171561083557600080fd5b91908080601f016020809104026020016040519081016040528093929190818152602001838380828437600081840152601f19601f82011690508083019250505050505050919291929050505061157f565b005b610b11600480360360a081101561089f57600080fd5b81019080803590602001906401000000008111156108bc57600080fd5b8201836020820111156108ce57600080fd5b803590602001918460018302840111640100000000831117156108f057600080fd5b91908080601f016020809104026020016040519081016040528093929190818152602001838380828437600081840152601f19601f8201169050808301925050505050505091929192908035906020019064010000000081111561095357600080fd5b82018360208201111561096557600080fd5b8035906020019184600183028401116401000000008311171561098757600080fd5b91908080601f016020809104026020016040519081016040528093929190818152602001838380828437600081840152601f19601f820116905080830192505050505050509192919290803590602001906401000000008111156109ea57600080fd5b8201836020820111156109fc57600080fd5b80359060200191846001830284011164010000000083111715610a1e57600080fd5b91908080601f016020809104026020016040519081016040528093929190818152602001838380828437600081840152601f19601f82011690508083019250505050505050919291929080359060200190640100000000811115610a8157600080fd5b820183602082011115610a9357600080fd5b80359060200191846001830284011164010000000083111715610ab557600080fd5b91908080601f016020809104026020016040519081016040528093929190818152602001838380828437600081840152601f19601f82011690508083019250505050505050919291929080359060200190929190505050611808565b005b610b1b611a92565b6040518082815260200191505060405180910390f35b6000806060600060608060016000888152602001908152602001600020600101546001600089815260200190815260200160002060000160009054906101000a900473ffffffffffffffffffffffffffffffffffffffff16600160008a8152602001908152602001600020600301600160008b815260200190815260200160002060020154600160008c8152602001908152602001600020600401600160008d8152602001908152602001600020600501838054600181600116156101000203166002900480601f016020809104026020016040519081016040528092919081815260200182805460018160011615610100020316600290048015610c775780601f10610c4c57610100808354040283529160200191610c77565b820191906000526020600020905b815481529060010190602001808311610c5a57829003601f168201915b50505050509350818054600181600116156101000203166002900480601f016020809104026020016040519081016040528092919081815260200182805460018160011615610100020316600290048015610d135780601f10610ce857610100808354040283529160200191610d13565b820191906000526020600020905b815481529060010190602001808311610cf657829003601f168201915b50505050509150808054600181600116156101000203166002900480601f016020809104026020016040519081016040528092919081815260200182805460018160011615610100020316600290048015610daf5780601f10610d8457610100808354040283529160200191610daf565b820191906000526020600020905b815481529060010190602001808311610d9257829003601f168201915b5050505050905095509550955095509550955091939550919395565b600080606060038054905084108015610de5575060008410155b610e57576040517f08c379a000000000000000000000000000000000000000000000000000000000815260040180806020018281038252601c8152602001807f4e6f20766572696669656420656d706c6f7965727320666f756e64210000000081525060200191505060405180910390fd5b60038481548110610e6457fe5b90600052602060002090600302016001015460038581548110610e8357fe5b906000526020600020906003020160000160009054906101000a900473ffffffffffffffffffffffffffffffffffffffff1660038681548110610ec257fe5b9060005260206000209060030201600201808054600181600116156101000203166002900480601f016020809104026020016040519081016040528092919081815260200182805460018160011615610100020316600290048015610f685780601f10610f3d57610100808354040283529160200191610f68565b820191906000526020600020905b815481529060010190602001808311610f4b57829003601f168201915b505050505090509250925092509193909250565b6000600280549050905090565b600060028281548110610f9857fe5b906000526020600020906008020160070160006101000a81548160ff02191690831515021790555050565b6000809054906101000a900473ffffffffffffffffffffffffffffffffffffffff1673ffffffffffffffffffffffffffffffffffffffff163373ffffffffffffffffffffffffffffffffffffffff1614611085576040517f08c379a00000000000000000000000000000000000000000000000000000000081526004018080602001828103825260208152602001807f4f776e65722063616e2061646420766572696669656420656d706c6f7965727381525060200191505060405180910390fd5b60006003805490509050611097611a9f565b60405180606001604052808573ffffffffffffffffffffffffffffffffffffffff1681526020018381526020018481525090506003819080600181540180825580915050906001820390600052602060002090600302016000909192909190915060008201518160000160006101000a81548173ffffffffffffffffffffffffffffffffffffffff021916908373ffffffffffffffffffffffffffffffffffffffff160217905550602082015181600101556040820151816002019080519060200190611165929190611ad6565b5050505050505050565b60008060608060608060006002805490508810801561118f575060008810155b611201576040517f08c379a000000000000000000000000000000000000000000000000000000000815260040180806020018281038252600d8152602001807f4e6f206a6f6220666f756e64210000000000000000000000000000000000000081525060200191505060405180910390fd5b6002888154811061120e57fe5b906000526020600020906008020160000160009054906101000a900473ffffffffffffffffffffffffffffffffffffffff166002898154811061124d57fe5b90600052602060002090600802016001015460028a8154811061126c57fe5b906000526020600020906008020160030160028b8154811061128a57fe5b906000526020600020906008020160040160028c815481106112a857fe5b906000526020600020906008020160050160028d815481106112c657fe5b906000526020600020906008020160060160028e815481106112e457fe5b906000526020600020906008020160020154848054600181600116156101000203166002900480601f01602080910402602001604051908101604052809291908181526020018280546001816001161561010002031660029004801561138b5780601f106113605761010080835404028352916020019161138b565b820191906000526020600020905b81548152906001019060200180831161136e57829003601f168201915b50505050509450838054600181600116156101000203166002900480601f0160208091040260200160405190810160405280929190818152602001828054600181600116156101000203166002900480156114275780601f106113fc57610100808354040283529160200191611427565b820191906000526020600020905b81548152906001019060200180831161140a57829003601f168201915b50505050509350828054600181600116156101000203166002900480601f0160208091040260200160405190810160405280929190818152602001828054600181600116156101000203166002900480156114c35780601f10611498576101008083540402835291602001916114c3565b820191906000526020600020905b8154815290600101906020018083116114a657829003601f168201915b50505050509250818054600181600116156101000203166002900480601f01602080910402602001604051908101604052809291908181526020018280546001816001161561010002031660029004801561155f5780601f106115345761010080835404028352916020019161155f565b820191906000526020600020905b81548152906001019060200180831161154257829003601f168201915b505050505091509650965096509650965096509650919395979092949650565b6000809054906101000a900473ffffffffffffffffffffffffffffffffffffffff1673ffffffffffffffffffffffffffffffffffffffff163373ffffffffffffffffffffffffffffffffffffffff161415611642576040517f08c379a00000000000000000000000000000000000000000000000000000000081526004018080602001828103825260138152602001807f4f776e65722063616e6e6f7420656e726f6c6c0000000000000000000000000081525060200191505060405180910390fd5b6000859050600115156002878154811061165857fe5b906000526020600020906008020160070160009054906101000a900460ff161515146116ec576040517f08c379a00000000000000000000000000000000000000000000000000000000081526004018080602001828103825260118152602001807f4e6f2061637469766520696e74616b657300000000000000000000000000000081525060200191505060405180910390fd5b6040518060c001604052803373ffffffffffffffffffffffffffffffffffffffff168152602001878152602001858152602001868152602001848152602001838152506001600083815260200190815260200160002060008201518160000160006101000a81548173ffffffffffffffffffffffffffffffffffffffff021916908373ffffffffffffffffffffffffffffffffffffffff160217905550602082015181600101556040820151816002015560608201518160030190805190602001906117b9929190611ad6565b5060808201518160040190805190602001906117d6929190611ad6565b5060a08201518160050190805190602001906117f3929190611ad6565b5090505061180086610f89565b505050505050565b6000809054906101000a900473ffffffffffffffffffffffffffffffffffffffff1673ffffffffffffffffffffffffffffffffffffffff163373ffffffffffffffffffffffffffffffffffffffff1614156118cb576040517f08c379a00000000000000000000000000000000000000000000000000000000081526004018080602001828103825260138152602001807f4f776e65722063616e6e6f7420656e726f6c6c0000000000000000000000000081525060200191505060405180910390fd5b600060028054905090506118dd611b56565b6040518061010001604052803373ffffffffffffffffffffffffffffffffffffffff1681526020018381526020018481526020018881526020018781526020018681526020018581526020016001151581525090506002819080600181540180825580915050906001820390600052602060002090600802016000909192909190915060008201518160000160006101000a81548173ffffffffffffffffffffffffffffffffffffffff021916908373ffffffffffffffffffffffffffffffffffffffff160217905550602082015181600101556040820151816002015560608201518160030190805190602001906119d7929190611ad6565b5060808201518160040190805190602001906119f4929190611ad6565b5060a0820151816005019080519060200190611a11929190611ad6565b5060c0820151816006019080519060200190611a2e929190611ad6565b5060e08201518160070160006101000a81548160ff0219169083151502179055505050507f92447c6ecd808d390fb352da0dc90a05275b074c43bf302132a27fabafa6872b826040518082815260200191505060405180910390a150505050505050565b6000600380549050905090565b6040518060600160405280600073ffffffffffffffffffffffffffffffffffffffff16815260200160008152602001606081525090565b828054600181600116156101000203166002900490600052602060002090601f016020900481019282601f10611b1757805160ff1916838001178555611b45565b82800160010185558215611b45579182015b82811115611b44578251825591602001919060010190611b29565b5b509050611b529190611bb3565b5090565b604051806101000160405280600073ffffffffffffffffffffffffffffffffffffffff1681526020016000815260200160008152602001606081526020016060815260200160608152602001606081526020016000151581525090565b611bd591905b80821115611bd1576000816000905550600101611bb9565b5090565b9056fea265627a7a72315820211c82c7d5693456b5d26073dbe729cf1519feddff8f40a71712a058a8855bd464736f6c63430005100032",
  "source": "// SPDX-License-Identifier: MIT\npragma solidity >= 0.5.0 < 0.7.0;\n\ncontract CIEG {\n    \n  address owner;\n  \n  constructor() public {\n    owner = msg.sender;\n  }\n  \n  struct Candidate {\n    address applCandAddress;\n    uint256 applJobId;\n    uint256 age;\n    string name;\n    string phNumber;\n    string qual;\n  }\n\n  struct Job {\n    address empAddress;\n    uint256 id;\n    uint256 reward;\n    string companyName;\n    string jobTitle;\n    string location;\n    string jobType;\n    bool status;\n  }\n\n  struct VerifiedEmployer {\n    address verifiedEmpAddress;\n    uint256 id;\n    string verifiedEmpName;\n  }\n\n  mapping(uint256 => Candidate) private candidates;\n  Job[] private jobs;\n  VerifiedEmployer[] private verifiedEmployers;\n\n  event JobCreated(uint256 _jobId);\n  \n  modifier owner_disallow() {\n    require(msg.sender != owner, \"Owner cannot enroll\");\n    _;\n  }\n  \n  modifier only_owner() {\n      require(msg.sender == owner, \"Owner can add verified employers\");\n      _;\n  }\n  \n  function addVerifiedEmployer(address _empAddress, string memory _empName) public only_owner {\n      uint256 empVId = verifiedEmployers.length;\n      \n      VerifiedEmployer memory newVEmp = VerifiedEmployer({\n          id: empVId,\n          verifiedEmpAddress: _empAddress,\n          verifiedEmpName: _empName\n      });\n      verifiedEmployers.push(newVEmp);\n  }\n \n  function addCandidate(uint256 _applJobId, string memory _name, uint256 _age, string memory _phNumber, string memory _qual) public owner_disallow {\n        uint256 applJob = _applJobId;\n        require(jobs[_applJobId].status == true, \"No active intakes\");\n        candidates[applJob] = Candidate(msg.sender, _applJobId, _age, _name, _phNumber, _qual);\n        changeJobStatus(_applJobId);\n  }\n  \n  function addJob(string memory _companyName, string memory _jobTitle, string memory _location, string memory _jobType, uint256 _reward) public owner_disallow {\n      uint256 jobId = jobs.length;\n\n      Job memory newJob = Job({\n        empAddress: msg.sender,\n        id: jobId,\n        reward: _reward,\n        companyName: _companyName,\n        jobTitle: _jobTitle,\n        location: _location,\n        jobType: _jobType,\n        status: true\n      });\n\n      jobs.push(newJob);\n      emit JobCreated(jobId);\n  }\n  \n  function changeJobStatus(uint256 _jobId) public {\n      jobs[_jobId].status = false;\n  }\n\n  function getJob(uint256 _jobId) external view returns(address, uint256, string memory, string memory, string memory, string memory, uint256) {\n    require(_jobId < jobs.length && _jobId >=0, \"No job found!\");\n    return(\n      jobs[_jobId].empAddress,    \n      jobs[_jobId].id,\n      jobs[_jobId].companyName,\n      jobs[_jobId].jobTitle,\n      jobs[_jobId].location,\n      jobs[_jobId].jobType,\n      jobs[_jobId].reward\n    );\n  }\n\n  function getAllJobs() external view returns(uint256) {\n    return jobs.length;\n  }\n  \n  function getCandidate(uint256 _candidate) external view returns(uint256, address, string memory, uint256, string memory, string memory) {\n    return (\n      candidates[_candidate].applJobId,\n      candidates[_candidate].applCandAddress,\n      candidates[_candidate].name,\n      candidates[_candidate].age,\n      candidates[_candidate].phNumber,\n      candidates[_candidate].qual\n      );\n  }\n  \n  function getAllVEmployers() external view returns(uint256) {\n      return verifiedEmployers.length;\n  }\n  \n  function getVerifiedEmployer(uint256 _empVId) external view returns(uint256, address, string memory) {\n    require(_empVId < verifiedEmployers.length && _empVId >=0, \"No verified employers found!\");\n    return(\n        verifiedEmployers[_empVId].id,\n        verifiedEmployers[_empVId].verifiedEmpAddress,\n        verifiedEmployers[_empVId].verifiedEmpName\n    );\n  }\n\n}\n",
  "sourcePath": "D:\\CIEG\\ced-b4-g08\\frontend\\truffle\\contracts\\CIEG.sol",
  "compiler": {
    "name": "solc",
    "version": "0.5.16+commit.9c3226ce.Emscripten.clang"
  },
  "schemaVersion": "3.0.23",
  "updatedAt": "2020-08-05T14:07:56.855Z",
  "networkType": "ethereum",
  "devdoc": {
    "methods": {}
  },
  "userdoc": {
    "methods": {}
  }
}